{
	"contracts/2_MockOracle.sol": {
		"MockOracle": {
			"abi": [
				{
					"inputs": [],
					"stateMutability": "nonpayable",
					"type": "constructor"
				},
				{
					"anonymous": false,
					"inputs": [
						{
							"indexed": true,
							"internalType": "address",
							"name": "meter",
							"type": "address"
						},
						{
							"indexed": false,
							"internalType": "uint256",
							"name": "production",
							"type": "uint256"
						},
						{
							"indexed": false,
							"internalType": "uint256",
							"name": "consumption",
							"type": "uint256"
						}
					],
					"name": "EnergyDataUpdated",
					"type": "event"
				},
				{
					"anonymous": false,
					"inputs": [
						{
							"indexed": true,
							"internalType": "address",
							"name": "meter",
							"type": "address"
						}
					],
					"name": "MeterRegistered",
					"type": "event"
				},
				{
					"anonymous": false,
					"inputs": [
						{
							"indexed": true,
							"internalType": "address",
							"name": "meter",
							"type": "address"
						}
					],
					"name": "MeterRemoved",
					"type": "event"
				},
				{
					"inputs": [],
					"name": "admin",
					"outputs": [
						{
							"internalType": "address",
							"name": "",
							"type": "address"
						}
					],
					"stateMutability": "view",
					"type": "function"
				},
				{
					"inputs": [],
					"name": "getEnergyData",
					"outputs": [
						{
							"internalType": "uint256",
							"name": "production",
							"type": "uint256"
						},
						{
							"internalType": "uint256",
							"name": "consumption",
							"type": "uint256"
						}
					],
					"stateMutability": "view",
					"type": "function"
				},
				{
					"inputs": [
						{
							"internalType": "address",
							"name": "",
							"type": "address"
						}
					],
					"name": "isMeter",
					"outputs": [
						{
							"internalType": "bool",
							"name": "",
							"type": "bool"
						}
					],
					"stateMutability": "view",
					"type": "function"
				},
				{
					"inputs": [
						{
							"internalType": "address",
							"name": "_meter",
							"type": "address"
						}
					],
					"name": "registerMeter",
					"outputs": [],
					"stateMutability": "nonpayable",
					"type": "function"
				},
				{
					"inputs": [
						{
							"internalType": "address",
							"name": "_meter",
							"type": "address"
						}
					],
					"name": "removeMeter",
					"outputs": [],
					"stateMutability": "nonpayable",
					"type": "function"
				},
				{
					"inputs": [
						{
							"internalType": "uint256",
							"name": "_production",
							"type": "uint256"
						},
						{
							"internalType": "uint256",
							"name": "_consumption",
							"type": "uint256"
						}
					],
					"name": "setEnergyData",
					"outputs": [],
					"stateMutability": "nonpayable",
					"type": "function"
				}
			],
			"devdoc": {
				"kind": "dev",
				"methods": {},
				"version": 1
			},
			"evm": {
				"assembly": "    /* \"contracts/2_MockOracle.sol\":61:1569  contract MockOracle {... */\n  mstore(0x40, 0x80)\n    /* \"contracts/2_MockOracle.sol\":656:704  constructor(){... */\n  callvalue\n  dup1\n  iszero\n  tag_1\n  jumpi\n  revert(0x00, 0x00)\ntag_1:\n  pop\n    /* \"contracts/2_MockOracle.sol\":687:697  msg.sender */\n  caller\n    /* \"contracts/2_MockOracle.sol\":679:684  admin */\n  0x02\n  0x00\n    /* \"contracts/2_MockOracle.sol\":679:697  admin = msg.sender */\n  0x0100\n  exp\n  dup2\n  sload\n  dup2\n  0xffffffffffffffffffffffffffffffffffffffff\n  mul\n  not\n  and\n  swap1\n  dup4\n  0xffffffffffffffffffffffffffffffffffffffff\n  and\n  mul\n  or\n  swap1\n  sstore\n  pop\n    /* \"contracts/2_MockOracle.sol\":61:1569  contract MockOracle {... */\n  dataSize(sub_0)\n  dup1\n  dataOffset(sub_0)\n  0x00\n  codecopy\n  0x00\n  return\nstop\n\nsub_0: assembly {\n        /* \"contracts/2_MockOracle.sol\":61:1569  contract MockOracle {... */\n      mstore(0x40, 0x80)\n      callvalue\n      dup1\n      iszero\n      tag_1\n      jumpi\n      revert(0x00, 0x00)\n    tag_1:\n      pop\n      jumpi(tag_2, lt(calldatasize, 0x04))\n      shr(0xe0, calldataload(0x00))\n      dup1\n      0xf1b3\n      eq\n      tag_3\n      jumpi\n      dup1\n      0x0ff98543\n      eq\n      tag_4\n      jumpi\n      dup1\n      0x11054e28\n      eq\n      tag_5\n      jumpi\n      dup1\n      0x4b0ac39d\n      eq\n      tag_6\n      jumpi\n      dup1\n      0xe5f5a1fe\n      eq\n      tag_7\n      jumpi\n      dup1\n      0xf851a440\n      eq\n      tag_8\n      jumpi\n    tag_2:\n      revert(0x00, 0x00)\n        /* \"contracts/2_MockOracle.sol\":909:1098  function removeMeter(address _meter) external onlyAdmin {... */\n    tag_3:\n      tag_9\n      0x04\n      dup1\n      calldatasize\n      sub\n      dup2\n      add\n      swap1\n      tag_10\n      swap2\n      swap1\n      tag_11\n      jump\t// in\n    tag_10:\n      tag_12\n      jump\t// in\n    tag_9:\n      stop\n        /* \"contracts/2_MockOracle.sol\":710:903  function registerMeter(address _meter) external onlyAdmin {... */\n    tag_4:\n      tag_13\n      0x04\n      dup1\n      calldatasize\n      sub\n      dup2\n      add\n      swap1\n      tag_14\n      swap2\n      swap1\n      tag_11\n      jump\t// in\n    tag_14:\n      tag_15\n      jump\t// in\n    tag_13:\n      stop\n        /* \"contracts/2_MockOracle.sol\":1421:1567  function getEnergyData() external view returns (uint256 production, uint256 consumption) {... */\n    tag_5:\n      tag_16\n      tag_17\n      jump\t// in\n    tag_16:\n      mload(0x40)\n      tag_18\n      swap3\n      swap2\n      swap1\n      tag_19\n      jump\t// in\n    tag_18:\n      mload(0x40)\n      dup1\n      swap2\n      sub\n      swap1\n      return\n        /* \"contracts/2_MockOracle.sol\":187:226  mapping(address => bool) public isMeter */\n    tag_6:\n      tag_20\n      0x04\n      dup1\n      calldatasize\n      sub\n      dup2\n      add\n      swap1\n      tag_21\n      swap2\n      swap1\n      tag_11\n      jump\t// in\n    tag_21:\n      tag_22\n      jump\t// in\n    tag_20:\n      mload(0x40)\n      tag_23\n      swap2\n      swap1\n      tag_24\n      jump\t// in\n    tag_23:\n      mload(0x40)\n      dup1\n      swap2\n      sub\n      swap1\n      return\n        /* \"contracts/2_MockOracle.sol\":1129:1371  function setEnergyData(uint256 _production, uint256 _consumption) external onlyMeter {... */\n    tag_7:\n      tag_25\n      0x04\n      dup1\n      calldatasize\n      sub\n      dup2\n      add\n      swap1\n      tag_26\n      swap2\n      swap1\n      tag_27\n      jump\t// in\n    tag_26:\n      tag_28\n      jump\t// in\n    tag_25:\n      stop\n        /* \"contracts/2_MockOracle.sol\":160:180  address public admin */\n    tag_8:\n      tag_29\n      tag_30\n      jump\t// in\n    tag_29:\n      mload(0x40)\n      tag_31\n      swap2\n      swap1\n      tag_32\n      jump\t// in\n    tag_31:\n      mload(0x40)\n      dup1\n      swap2\n      sub\n      swap1\n      return\n        /* \"contracts/2_MockOracle.sol\":909:1098  function removeMeter(address _meter) external onlyAdmin {... */\n    tag_12:\n        /* \"contracts/2_MockOracle.sol\":507:512  admin */\n      0x02\n      0x00\n      swap1\n      sload\n      swap1\n      0x0100\n      exp\n      swap1\n      div\n      0xffffffffffffffffffffffffffffffffffffffff\n      and\n        /* \"contracts/2_MockOracle.sol\":493:512  msg.sender == admin */\n      0xffffffffffffffffffffffffffffffffffffffff\n      and\n        /* \"contracts/2_MockOracle.sol\":493:503  msg.sender */\n      caller\n        /* \"contracts/2_MockOracle.sol\":493:512  msg.sender == admin */\n      0xffffffffffffffffffffffffffffffffffffffff\n      and\n      eq\n        /* \"contracts/2_MockOracle.sol\":485:526  require(msg.sender == admin, \"Not admin\") */\n      tag_34\n      jumpi\n      mload(0x40)\n      0x08c379a000000000000000000000000000000000000000000000000000000000\n      dup2\n      mstore\n      0x04\n      add\n      tag_35\n      swap1\n      tag_36\n      jump\t// in\n    tag_35:\n      mload(0x40)\n      dup1\n      swap2\n      sub\n      swap1\n      revert\n    tag_34:\n        /* \"contracts/2_MockOracle.sol\":999:1000  0 */\n      0x00\n        /* \"contracts/2_MockOracle.sol\":983:1001  _meter!=address(0) */\n      0xffffffffffffffffffffffffffffffffffffffff\n      and\n        /* \"contracts/2_MockOracle.sol\":983:989  _meter */\n      dup2\n        /* \"contracts/2_MockOracle.sol\":983:1001  _meter!=address(0) */\n      0xffffffffffffffffffffffffffffffffffffffff\n      and\n      sub\n        /* \"contracts/2_MockOracle.sol\":975:1021  require(_meter!=address(0),\"No address found\") */\n      tag_38\n      jumpi\n      mload(0x40)\n      0x08c379a000000000000000000000000000000000000000000000000000000000\n      dup2\n      mstore\n      0x04\n      add\n      tag_39\n      swap1\n      tag_40\n      jump\t// in\n    tag_39:\n      mload(0x40)\n      dup1\n      swap2\n      sub\n      swap1\n      revert\n    tag_38:\n        /* \"contracts/2_MockOracle.sol\":1049:1054  false */\n      0x00\n        /* \"contracts/2_MockOracle.sol\":1031:1038  isMeter */\n      0x03\n        /* \"contracts/2_MockOracle.sol\":1031:1046  isMeter[_meter] */\n      0x00\n        /* \"contracts/2_MockOracle.sol\":1039:1045  _meter */\n      dup4\n        /* \"contracts/2_MockOracle.sol\":1031:1046  isMeter[_meter] */\n      0xffffffffffffffffffffffffffffffffffffffff\n      and\n      0xffffffffffffffffffffffffffffffffffffffff\n      and\n      dup2\n      mstore\n      0x20\n      add\n      swap1\n      dup2\n      mstore\n      0x20\n      add\n      0x00\n      keccak256\n      0x00\n        /* \"contracts/2_MockOracle.sol\":1031:1054  isMeter[_meter] = false */\n      0x0100\n      exp\n      dup2\n      sload\n      dup2\n      0xff\n      mul\n      not\n      and\n      swap1\n      dup4\n      iszero\n      iszero\n      mul\n      or\n      swap1\n      sstore\n      pop\n        /* \"contracts/2_MockOracle.sol\":1083:1089  _meter */\n      dup1\n        /* \"contracts/2_MockOracle.sol\":1069:1091  MeterRemoved((_meter)) */\n      0xffffffffffffffffffffffffffffffffffffffff\n      and\n      0x2718f71c8c668ecab17c4a97593a8f19f978e070877cc2331519841482da60c0\n      mload(0x40)\n      mload(0x40)\n      dup1\n      swap2\n      sub\n      swap1\n      log2\n        /* \"contracts/2_MockOracle.sol\":909:1098  function removeMeter(address _meter) external onlyAdmin {... */\n      pop\n      jump\t// out\n        /* \"contracts/2_MockOracle.sol\":710:903  function registerMeter(address _meter) external onlyAdmin {... */\n    tag_15:\n        /* \"contracts/2_MockOracle.sol\":507:512  admin */\n      0x02\n      0x00\n      swap1\n      sload\n      swap1\n      0x0100\n      exp\n      swap1\n      div\n      0xffffffffffffffffffffffffffffffffffffffff\n      and\n        /* \"contracts/2_MockOracle.sol\":493:512  msg.sender == admin */\n      0xffffffffffffffffffffffffffffffffffffffff\n      and\n        /* \"contracts/2_MockOracle.sol\":493:503  msg.sender */\n      caller\n        /* \"contracts/2_MockOracle.sol\":493:512  msg.sender == admin */\n      0xffffffffffffffffffffffffffffffffffffffff\n      and\n      eq\n        /* \"contracts/2_MockOracle.sol\":485:526  require(msg.sender == admin, \"Not admin\") */\n      tag_42\n      jumpi\n      mload(0x40)\n      0x08c379a000000000000000000000000000000000000000000000000000000000\n      dup2\n      mstore\n      0x04\n      add\n      tag_43\n      swap1\n      tag_36\n      jump\t// in\n    tag_43:\n      mload(0x40)\n      dup1\n      swap2\n      sub\n      swap1\n      revert\n    tag_42:\n        /* \"contracts/2_MockOracle.sol\":802:803  0 */\n      0x00\n        /* \"contracts/2_MockOracle.sol\":786:804  _meter!=address(0) */\n      0xffffffffffffffffffffffffffffffffffffffff\n      and\n        /* \"contracts/2_MockOracle.sol\":786:792  _meter */\n      dup2\n        /* \"contracts/2_MockOracle.sol\":786:804  _meter!=address(0) */\n      0xffffffffffffffffffffffffffffffffffffffff\n      and\n      sub\n        /* \"contracts/2_MockOracle.sol\":778:826  require(_meter!=address(0),\"No address present\") */\n      tag_45\n      jumpi\n      mload(0x40)\n      0x08c379a000000000000000000000000000000000000000000000000000000000\n      dup2\n      mstore\n      0x04\n      add\n      tag_46\n      swap1\n      tag_47\n      jump\t// in\n    tag_46:\n      mload(0x40)\n      dup1\n      swap2\n      sub\n      swap1\n      revert\n    tag_45:\n        /* \"contracts/2_MockOracle.sol\":854:858  true */\n      0x01\n        /* \"contracts/2_MockOracle.sol\":836:843  isMeter */\n      0x03\n        /* \"contracts/2_MockOracle.sol\":836:851  isMeter[_meter] */\n      0x00\n        /* \"contracts/2_MockOracle.sol\":844:850  _meter */\n      dup4\n        /* \"contracts/2_MockOracle.sol\":836:851  isMeter[_meter] */\n      0xffffffffffffffffffffffffffffffffffffffff\n      and\n      0xffffffffffffffffffffffffffffffffffffffff\n      and\n      dup2\n      mstore\n      0x20\n      add\n      swap1\n      dup2\n      mstore\n      0x20\n      add\n      0x00\n      keccak256\n      0x00\n        /* \"contracts/2_MockOracle.sol\":836:858  isMeter[_meter] = true */\n      0x0100\n      exp\n      dup2\n      sload\n      dup2\n      0xff\n      mul\n      not\n      and\n      swap1\n      dup4\n      iszero\n      iszero\n      mul\n      or\n      swap1\n      sstore\n      pop\n        /* \"contracts/2_MockOracle.sol\":889:895  _meter */\n      dup1\n        /* \"contracts/2_MockOracle.sol\":873:896  MeterRegistered(_meter) */\n      0xffffffffffffffffffffffffffffffffffffffff\n      and\n      0x52686047fe73c5082965d96118dd22fe902c785dcd7ea74f79dfc3d600993a6f\n      mload(0x40)\n      mload(0x40)\n      dup1\n      swap2\n      sub\n      swap1\n      log2\n        /* \"contracts/2_MockOracle.sol\":710:903  function registerMeter(address _meter) external onlyAdmin {... */\n      pop\n      jump\t// out\n        /* \"contracts/2_MockOracle.sol\":1421:1567  function getEnergyData() external view returns (uint256 production, uint256 consumption) {... */\n    tag_17:\n        /* \"contracts/2_MockOracle.sol\":1469:1487  uint256 production */\n      0x00\n        /* \"contracts/2_MockOracle.sol\":1489:1508  uint256 consumption */\n      0x00\n        /* \"contracts/2_MockOracle.sol\":1528:1542  productionData */\n      sload(0x00)\n        /* \"contracts/2_MockOracle.sol\":1544:1559  consumptionData */\n      sload(0x01)\n        /* \"contracts/2_MockOracle.sol\":1520:1560  return (productionData, consumptionData) */\n      swap2\n      pop\n      swap2\n      pop\n        /* \"contracts/2_MockOracle.sol\":1421:1567  function getEnergyData() external view returns (uint256 production, uint256 consumption) {... */\n      swap1\n      swap2\n      jump\t// out\n        /* \"contracts/2_MockOracle.sol\":187:226  mapping(address => bool) public isMeter */\n    tag_22:\n      mstore(0x20, 0x03)\n      dup1\n      0x00\n      mstore\n      keccak256(0x00, 0x40)\n      0x00\n      swap2\n      pop\n      sload\n      swap1\n      0x0100\n      exp\n      swap1\n      div\n      0xff\n      and\n      dup2\n      jump\t// out\n        /* \"contracts/2_MockOracle.sol\":1129:1371  function setEnergyData(uint256 _production, uint256 _consumption) external onlyMeter {... */\n    tag_28:\n        /* \"contracts/2_MockOracle.sol\":588:595  isMeter */\n      0x03\n        /* \"contracts/2_MockOracle.sol\":588:607  isMeter[msg.sender] */\n      0x00\n        /* \"contracts/2_MockOracle.sol\":596:606  msg.sender */\n      caller\n        /* \"contracts/2_MockOracle.sol\":588:607  isMeter[msg.sender] */\n      0xffffffffffffffffffffffffffffffffffffffff\n      and\n      0xffffffffffffffffffffffffffffffffffffffff\n      and\n      dup2\n      mstore\n      0x20\n      add\n      swap1\n      dup2\n      mstore\n      0x20\n      add\n      0x00\n      keccak256\n      0x00\n      swap1\n      sload\n      swap1\n      0x0100\n      exp\n      swap1\n      div\n      0xff\n      and\n        /* \"contracts/2_MockOracle.sol\":580:632  require(isMeter[msg.sender], \"Not authorized meter\") */\n      tag_50\n      jumpi\n      mload(0x40)\n      0x08c379a000000000000000000000000000000000000000000000000000000000\n      dup2\n      mstore\n      0x04\n      add\n      tag_51\n      swap1\n      tag_52\n      jump\t// in\n    tag_51:\n      mload(0x40)\n      dup1\n      swap2\n      sub\n      swap1\n      revert\n    tag_50:\n        /* \"contracts/2_MockOracle.sol\":1241:1252  _production */\n      dup2\n        /* \"contracts/2_MockOracle.sol\":1224:1238  productionData */\n      0x00\n        /* \"contracts/2_MockOracle.sol\":1224:1252  productionData = _production */\n      dup2\n      swap1\n      sstore\n      pop\n        /* \"contracts/2_MockOracle.sol\":1280:1292  _consumption */\n      dup1\n        /* \"contracts/2_MockOracle.sol\":1262:1277  consumptionData */\n      0x01\n        /* \"contracts/2_MockOracle.sol\":1262:1292  consumptionData = _consumption */\n      dup2\n      swap1\n      sstore\n      pop\n        /* \"contracts/2_MockOracle.sol\":1326:1336  msg.sender */\n      caller\n        /* \"contracts/2_MockOracle.sol\":1308:1364  EnergyDataUpdated(msg.sender, _production, _consumption) */\n      0xffffffffffffffffffffffffffffffffffffffff\n      and\n      0x5298cbdfe4a1516062fa96c339b69d2fc92aa2afc21efb669f985cc4979e1fad\n        /* \"contracts/2_MockOracle.sol\":1338:1349  _production */\n      dup4\n        /* \"contracts/2_MockOracle.sol\":1351:1363  _consumption */\n      dup4\n        /* \"contracts/2_MockOracle.sol\":1308:1364  EnergyDataUpdated(msg.sender, _production, _consumption) */\n      mload(0x40)\n      tag_54\n      swap3\n      swap2\n      swap1\n      tag_19\n      jump\t// in\n    tag_54:\n      mload(0x40)\n      dup1\n      swap2\n      sub\n      swap1\n      log2\n        /* \"contracts/2_MockOracle.sol\":1129:1371  function setEnergyData(uint256 _production, uint256 _consumption) external onlyMeter {... */\n      pop\n      pop\n      jump\t// out\n        /* \"contracts/2_MockOracle.sol\":160:180  address public admin */\n    tag_30:\n      0x02\n      0x00\n      swap1\n      sload\n      swap1\n      0x0100\n      exp\n      swap1\n      div\n      0xffffffffffffffffffffffffffffffffffffffff\n      and\n      dup2\n      jump\t// out\n        /* \"#utility.yul\":88:205   */\n    tag_56:\n        /* \"#utility.yul\":197:198   */\n      0x00\n        /* \"#utility.yul\":194:195   */\n      0x00\n        /* \"#utility.yul\":187:199   */\n      revert\n        /* \"#utility.yul\":334:460   */\n    tag_58:\n        /* \"#utility.yul\":371:378   */\n      0x00\n        /* \"#utility.yul\":411:453   */\n      0xffffffffffffffffffffffffffffffffffffffff\n        /* \"#utility.yul\":404:409   */\n      dup3\n        /* \"#utility.yul\":400:454   */\n      and\n        /* \"#utility.yul\":389:454   */\n      swap1\n      pop\n        /* \"#utility.yul\":334:460   */\n      swap2\n      swap1\n      pop\n      jump\t// out\n        /* \"#utility.yul\":466:562   */\n    tag_59:\n        /* \"#utility.yul\":503:510   */\n      0x00\n        /* \"#utility.yul\":532:556   */\n      tag_84\n        /* \"#utility.yul\":550:555   */\n      dup3\n        /* \"#utility.yul\":532:556   */\n      tag_58\n      jump\t// in\n    tag_84:\n        /* \"#utility.yul\":521:556   */\n      swap1\n      pop\n        /* \"#utility.yul\":466:562   */\n      swap2\n      swap1\n      pop\n      jump\t// out\n        /* \"#utility.yul\":568:690   */\n    tag_60:\n        /* \"#utility.yul\":641:665   */\n      tag_86\n        /* \"#utility.yul\":659:664   */\n      dup2\n        /* \"#utility.yul\":641:665   */\n      tag_59\n      jump\t// in\n    tag_86:\n        /* \"#utility.yul\":634:639   */\n      dup2\n        /* \"#utility.yul\":631:666   */\n      eq\n        /* \"#utility.yul\":621:684   */\n      tag_87\n      jumpi\n        /* \"#utility.yul\":680:681   */\n      0x00\n        /* \"#utility.yul\":677:678   */\n      0x00\n        /* \"#utility.yul\":670:682   */\n      revert\n        /* \"#utility.yul\":621:684   */\n    tag_87:\n        /* \"#utility.yul\":568:690   */\n      pop\n      jump\t// out\n        /* \"#utility.yul\":696:835   */\n    tag_61:\n        /* \"#utility.yul\":742:747   */\n      0x00\n        /* \"#utility.yul\":780:786   */\n      dup2\n        /* \"#utility.yul\":767:787   */\n      calldataload\n        /* \"#utility.yul\":758:787   */\n      swap1\n      pop\n        /* \"#utility.yul\":796:829   */\n      tag_89\n        /* \"#utility.yul\":823:828   */\n      dup2\n        /* \"#utility.yul\":796:829   */\n      tag_60\n      jump\t// in\n    tag_89:\n        /* \"#utility.yul\":696:835   */\n      swap3\n      swap2\n      pop\n      pop\n      jump\t// out\n        /* \"#utility.yul\":841:1170   */\n    tag_11:\n        /* \"#utility.yul\":900:906   */\n      0x00\n        /* \"#utility.yul\":949:951   */\n      0x20\n        /* \"#utility.yul\":937:946   */\n      dup3\n        /* \"#utility.yul\":928:935   */\n      dup5\n        /* \"#utility.yul\":924:947   */\n      sub\n        /* \"#utility.yul\":920:952   */\n      slt\n        /* \"#utility.yul\":917:1036   */\n      iszero\n      tag_91\n      jumpi\n        /* \"#utility.yul\":955:1034   */\n      tag_92\n      tag_56\n      jump\t// in\n    tag_92:\n        /* \"#utility.yul\":917:1036   */\n    tag_91:\n        /* \"#utility.yul\":1075:1076   */\n      0x00\n        /* \"#utility.yul\":1100:1153   */\n      tag_93\n        /* \"#utility.yul\":1145:1152   */\n      dup5\n        /* \"#utility.yul\":1136:1142   */\n      dup3\n        /* \"#utility.yul\":1125:1134   */\n      dup6\n        /* \"#utility.yul\":1121:1143   */\n      add\n        /* \"#utility.yul\":1100:1153   */\n      tag_61\n      jump\t// in\n    tag_93:\n        /* \"#utility.yul\":1090:1153   */\n      swap2\n      pop\n        /* \"#utility.yul\":1046:1163   */\n      pop\n        /* \"#utility.yul\":841:1170   */\n      swap3\n      swap2\n      pop\n      pop\n      jump\t// out\n        /* \"#utility.yul\":1176:1253   */\n    tag_62:\n        /* \"#utility.yul\":1213:1220   */\n      0x00\n        /* \"#utility.yul\":1242:1247   */\n      dup2\n        /* \"#utility.yul\":1231:1247   */\n      swap1\n      pop\n        /* \"#utility.yul\":1176:1253   */\n      swap2\n      swap1\n      pop\n      jump\t// out\n        /* \"#utility.yul\":1259:1377   */\n    tag_63:\n        /* \"#utility.yul\":1346:1370   */\n      tag_96\n        /* \"#utility.yul\":1364:1369   */\n      dup2\n        /* \"#utility.yul\":1346:1370   */\n      tag_62\n      jump\t// in\n    tag_96:\n        /* \"#utility.yul\":1341:1344   */\n      dup3\n        /* \"#utility.yul\":1334:1371   */\n      mstore\n        /* \"#utility.yul\":1259:1377   */\n      pop\n      pop\n      jump\t// out\n        /* \"#utility.yul\":1383:1715   */\n    tag_19:\n        /* \"#utility.yul\":1504:1508   */\n      0x00\n        /* \"#utility.yul\":1542:1544   */\n      0x40\n        /* \"#utility.yul\":1531:1540   */\n      dup3\n        /* \"#utility.yul\":1527:1545   */\n      add\n        /* \"#utility.yul\":1519:1545   */\n      swap1\n      pop\n        /* \"#utility.yul\":1555:1626   */\n      tag_98\n        /* \"#utility.yul\":1623:1624   */\n      0x00\n        /* \"#utility.yul\":1612:1621   */\n      dup4\n        /* \"#utility.yul\":1608:1625   */\n      add\n        /* \"#utility.yul\":1599:1605   */\n      dup6\n        /* \"#utility.yul\":1555:1626   */\n      tag_63\n      jump\t// in\n    tag_98:\n        /* \"#utility.yul\":1636:1708   */\n      tag_99\n        /* \"#utility.yul\":1704:1706   */\n      0x20\n        /* \"#utility.yul\":1693:1702   */\n      dup4\n        /* \"#utility.yul\":1689:1707   */\n      add\n        /* \"#utility.yul\":1680:1686   */\n      dup5\n        /* \"#utility.yul\":1636:1708   */\n      tag_63\n      jump\t// in\n    tag_99:\n        /* \"#utility.yul\":1383:1715   */\n      swap4\n      swap3\n      pop\n      pop\n      pop\n      jump\t// out\n        /* \"#utility.yul\":1721:1811   */\n    tag_64:\n        /* \"#utility.yul\":1755:1762   */\n      0x00\n        /* \"#utility.yul\":1798:1803   */\n      dup2\n        /* \"#utility.yul\":1791:1804   */\n      iszero\n        /* \"#utility.yul\":1784:1805   */\n      iszero\n        /* \"#utility.yul\":1773:1805   */\n      swap1\n      pop\n        /* \"#utility.yul\":1721:1811   */\n      swap2\n      swap1\n      pop\n      jump\t// out\n        /* \"#utility.yul\":1817:1926   */\n    tag_65:\n        /* \"#utility.yul\":1898:1919   */\n      tag_102\n        /* \"#utility.yul\":1913:1918   */\n      dup2\n        /* \"#utility.yul\":1898:1919   */\n      tag_64\n      jump\t// in\n    tag_102:\n        /* \"#utility.yul\":1893:1896   */\n      dup3\n        /* \"#utility.yul\":1886:1920   */\n      mstore\n        /* \"#utility.yul\":1817:1926   */\n      pop\n      pop\n      jump\t// out\n        /* \"#utility.yul\":1932:2142   */\n    tag_24:\n        /* \"#utility.yul\":2019:2023   */\n      0x00\n        /* \"#utility.yul\":2057:2059   */\n      0x20\n        /* \"#utility.yul\":2046:2055   */\n      dup3\n        /* \"#utility.yul\":2042:2060   */\n      add\n        /* \"#utility.yul\":2034:2060   */\n      swap1\n      pop\n        /* \"#utility.yul\":2070:2135   */\n      tag_104\n        /* \"#utility.yul\":2132:2133   */\n      0x00\n        /* \"#utility.yul\":2121:2130   */\n      dup4\n        /* \"#utility.yul\":2117:2134   */\n      add\n        /* \"#utility.yul\":2108:2114   */\n      dup5\n        /* \"#utility.yul\":2070:2135   */\n      tag_65\n      jump\t// in\n    tag_104:\n        /* \"#utility.yul\":1932:2142   */\n      swap3\n      swap2\n      pop\n      pop\n      jump\t// out\n        /* \"#utility.yul\":2148:2270   */\n    tag_66:\n        /* \"#utility.yul\":2221:2245   */\n      tag_106\n        /* \"#utility.yul\":2239:2244   */\n      dup2\n        /* \"#utility.yul\":2221:2245   */\n      tag_62\n      jump\t// in\n    tag_106:\n        /* \"#utility.yul\":2214:2219   */\n      dup2\n        /* \"#utility.yul\":2211:2246   */\n      eq\n        /* \"#utility.yul\":2201:2264   */\n      tag_107\n      jumpi\n        /* \"#utility.yul\":2260:2261   */\n      0x00\n        /* \"#utility.yul\":2257:2258   */\n      0x00\n        /* \"#utility.yul\":2250:2262   */\n      revert\n        /* \"#utility.yul\":2201:2264   */\n    tag_107:\n        /* \"#utility.yul\":2148:2270   */\n      pop\n      jump\t// out\n        /* \"#utility.yul\":2276:2415   */\n    tag_67:\n        /* \"#utility.yul\":2322:2327   */\n      0x00\n        /* \"#utility.yul\":2360:2366   */\n      dup2\n        /* \"#utility.yul\":2347:2367   */\n      calldataload\n        /* \"#utility.yul\":2338:2367   */\n      swap1\n      pop\n        /* \"#utility.yul\":2376:2409   */\n      tag_109\n        /* \"#utility.yul\":2403:2408   */\n      dup2\n        /* \"#utility.yul\":2376:2409   */\n      tag_66\n      jump\t// in\n    tag_109:\n        /* \"#utility.yul\":2276:2415   */\n      swap3\n      swap2\n      pop\n      pop\n      jump\t// out\n        /* \"#utility.yul\":2421:2895   */\n    tag_27:\n        /* \"#utility.yul\":2489:2495   */\n      0x00\n        /* \"#utility.yul\":2497:2503   */\n      0x00\n        /* \"#utility.yul\":2546:2548   */\n      0x40\n        /* \"#utility.yul\":2534:2543   */\n      dup4\n        /* \"#utility.yul\":2525:2532   */\n      dup6\n        /* \"#utility.yul\":2521:2544   */\n      sub\n        /* \"#utility.yul\":2517:2549   */\n      slt\n        /* \"#utility.yul\":2514:2633   */\n      iszero\n      tag_111\n      jumpi\n        /* \"#utility.yul\":2552:2631   */\n      tag_112\n      tag_56\n      jump\t// in\n    tag_112:\n        /* \"#utility.yul\":2514:2633   */\n    tag_111:\n        /* \"#utility.yul\":2672:2673   */\n      0x00\n        /* \"#utility.yul\":2697:2750   */\n      tag_113\n        /* \"#utility.yul\":2742:2749   */\n      dup6\n        /* \"#utility.yul\":2733:2739   */\n      dup3\n        /* \"#utility.yul\":2722:2731   */\n      dup7\n        /* \"#utility.yul\":2718:2740   */\n      add\n        /* \"#utility.yul\":2697:2750   */\n      tag_67\n      jump\t// in\n    tag_113:\n        /* \"#utility.yul\":2687:2750   */\n      swap3\n      pop\n        /* \"#utility.yul\":2643:2760   */\n      pop\n        /* \"#utility.yul\":2799:2801   */\n      0x20\n        /* \"#utility.yul\":2825:2878   */\n      tag_114\n        /* \"#utility.yul\":2870:2877   */\n      dup6\n        /* \"#utility.yul\":2861:2867   */\n      dup3\n        /* \"#utility.yul\":2850:2859   */\n      dup7\n        /* \"#utility.yul\":2846:2868   */\n      add\n        /* \"#utility.yul\":2825:2878   */\n      tag_67\n      jump\t// in\n    tag_114:\n        /* \"#utility.yul\":2815:2878   */\n      swap2\n      pop\n        /* \"#utility.yul\":2770:2888   */\n      pop\n        /* \"#utility.yul\":2421:2895   */\n      swap3\n      pop\n      swap3\n      swap1\n      pop\n      jump\t// out\n        /* \"#utility.yul\":2901:3019   */\n    tag_68:\n        /* \"#utility.yul\":2988:3012   */\n      tag_116\n        /* \"#utility.yul\":3006:3011   */\n      dup2\n        /* \"#utility.yul\":2988:3012   */\n      tag_59\n      jump\t// in\n    tag_116:\n        /* \"#utility.yul\":2983:2986   */\n      dup3\n        /* \"#utility.yul\":2976:3013   */\n      mstore\n        /* \"#utility.yul\":2901:3019   */\n      pop\n      pop\n      jump\t// out\n        /* \"#utility.yul\":3025:3247   */\n    tag_32:\n        /* \"#utility.yul\":3118:3122   */\n      0x00\n        /* \"#utility.yul\":3156:3158   */\n      0x20\n        /* \"#utility.yul\":3145:3154   */\n      dup3\n        /* \"#utility.yul\":3141:3159   */\n      add\n        /* \"#utility.yul\":3133:3159   */\n      swap1\n      pop\n        /* \"#utility.yul\":3169:3240   */\n      tag_118\n        /* \"#utility.yul\":3237:3238   */\n      0x00\n        /* \"#utility.yul\":3226:3235   */\n      dup4\n        /* \"#utility.yul\":3222:3239   */\n      add\n        /* \"#utility.yul\":3213:3219   */\n      dup5\n        /* \"#utility.yul\":3169:3240   */\n      tag_68\n      jump\t// in\n    tag_118:\n        /* \"#utility.yul\":3025:3247   */\n      swap3\n      swap2\n      pop\n      pop\n      jump\t// out\n        /* \"#utility.yul\":3253:3422   */\n    tag_69:\n        /* \"#utility.yul\":3337:3348   */\n      0x00\n        /* \"#utility.yul\":3371:3377   */\n      dup3\n        /* \"#utility.yul\":3366:3369   */\n      dup3\n        /* \"#utility.yul\":3359:3378   */\n      mstore\n        /* \"#utility.yul\":3411:3415   */\n      0x20\n        /* \"#utility.yul\":3406:3409   */\n      dup3\n        /* \"#utility.yul\":3402:3416   */\n      add\n        /* \"#utility.yul\":3387:3416   */\n      swap1\n      pop\n        /* \"#utility.yul\":3253:3422   */\n      swap3\n      swap2\n      pop\n      pop\n      jump\t// out\n        /* \"#utility.yul\":3428:3587   */\n    tag_70:\n        /* \"#utility.yul\":3568:3579   */\n      0x4e6f742061646d696e0000000000000000000000000000000000000000000000\n        /* \"#utility.yul\":3564:3565   */\n      0x00\n        /* \"#utility.yul\":3556:3562   */\n      dup3\n        /* \"#utility.yul\":3552:3566   */\n      add\n        /* \"#utility.yul\":3545:3580   */\n      mstore\n        /* \"#utility.yul\":3428:3587   */\n      pop\n      jump\t// out\n        /* \"#utility.yul\":3593:3958   */\n    tag_71:\n        /* \"#utility.yul\":3735:3738   */\n      0x00\n        /* \"#utility.yul\":3756:3822   */\n      tag_122\n        /* \"#utility.yul\":3820:3821   */\n      0x09\n        /* \"#utility.yul\":3815:3818   */\n      dup4\n        /* \"#utility.yul\":3756:3822   */\n      tag_69\n      jump\t// in\n    tag_122:\n        /* \"#utility.yul\":3749:3822   */\n      swap2\n      pop\n        /* \"#utility.yul\":3831:3924   */\n      tag_123\n        /* \"#utility.yul\":3920:3923   */\n      dup3\n        /* \"#utility.yul\":3831:3924   */\n      tag_70\n      jump\t// in\n    tag_123:\n        /* \"#utility.yul\":3949:3951   */\n      0x20\n        /* \"#utility.yul\":3944:3947   */\n      dup3\n        /* \"#utility.yul\":3940:3952   */\n      add\n        /* \"#utility.yul\":3933:3952   */\n      swap1\n      pop\n        /* \"#utility.yul\":3593:3958   */\n      swap2\n      swap1\n      pop\n      jump\t// out\n        /* \"#utility.yul\":3964:4383   */\n    tag_36:\n        /* \"#utility.yul\":4130:4134   */\n      0x00\n        /* \"#utility.yul\":4168:4170   */\n      0x20\n        /* \"#utility.yul\":4157:4166   */\n      dup3\n        /* \"#utility.yul\":4153:4171   */\n      add\n        /* \"#utility.yul\":4145:4171   */\n      swap1\n      pop\n        /* \"#utility.yul\":4217:4226   */\n      dup2\n        /* \"#utility.yul\":4211:4215   */\n      dup2\n        /* \"#utility.yul\":4207:4227   */\n      sub\n        /* \"#utility.yul\":4203:4204   */\n      0x00\n        /* \"#utility.yul\":4192:4201   */\n      dup4\n        /* \"#utility.yul\":4188:4205   */\n      add\n        /* \"#utility.yul\":4181:4228   */\n      mstore\n        /* \"#utility.yul\":4245:4376   */\n      tag_125\n        /* \"#utility.yul\":4371:4375   */\n      dup2\n        /* \"#utility.yul\":4245:4376   */\n      tag_71\n      jump\t// in\n    tag_125:\n        /* \"#utility.yul\":4237:4376   */\n      swap1\n      pop\n        /* \"#utility.yul\":3964:4383   */\n      swap2\n      swap1\n      pop\n      jump\t// out\n        /* \"#utility.yul\":4389:4555   */\n    tag_72:\n        /* \"#utility.yul\":4529:4547   */\n      0x4e6f206164647265737320666f756e6400000000000000000000000000000000\n        /* \"#utility.yul\":4525:4526   */\n      0x00\n        /* \"#utility.yul\":4517:4523   */\n      dup3\n        /* \"#utility.yul\":4513:4527   */\n      add\n        /* \"#utility.yul\":4506:4548   */\n      mstore\n        /* \"#utility.yul\":4389:4555   */\n      pop\n      jump\t// out\n        /* \"#utility.yul\":4561:4927   */\n    tag_73:\n        /* \"#utility.yul\":4703:4706   */\n      0x00\n        /* \"#utility.yul\":4724:4791   */\n      tag_128\n        /* \"#utility.yul\":4788:4790   */\n      0x10\n        /* \"#utility.yul\":4783:4786   */\n      dup4\n        /* \"#utility.yul\":4724:4791   */\n      tag_69\n      jump\t// in\n    tag_128:\n        /* \"#utility.yul\":4717:4791   */\n      swap2\n      pop\n        /* \"#utility.yul\":4800:4893   */\n      tag_129\n        /* \"#utility.yul\":4889:4892   */\n      dup3\n        /* \"#utility.yul\":4800:4893   */\n      tag_72\n      jump\t// in\n    tag_129:\n        /* \"#utility.yul\":4918:4920   */\n      0x20\n        /* \"#utility.yul\":4913:4916   */\n      dup3\n        /* \"#utility.yul\":4909:4921   */\n      add\n        /* \"#utility.yul\":4902:4921   */\n      swap1\n      pop\n        /* \"#utility.yul\":4561:4927   */\n      swap2\n      swap1\n      pop\n      jump\t// out\n        /* \"#utility.yul\":4933:5352   */\n    tag_40:\n        /* \"#utility.yul\":5099:5103   */\n      0x00\n        /* \"#utility.yul\":5137:5139   */\n      0x20\n        /* \"#utility.yul\":5126:5135   */\n      dup3\n        /* \"#utility.yul\":5122:5140   */\n      add\n        /* \"#utility.yul\":5114:5140   */\n      swap1\n      pop\n        /* \"#utility.yul\":5186:5195   */\n      dup2\n        /* \"#utility.yul\":5180:5184   */\n      dup2\n        /* \"#utility.yul\":5176:5196   */\n      sub\n        /* \"#utility.yul\":5172:5173   */\n      0x00\n        /* \"#utility.yul\":5161:5170   */\n      dup4\n        /* \"#utility.yul\":5157:5174   */\n      add\n        /* \"#utility.yul\":5150:5197   */\n      mstore\n        /* \"#utility.yul\":5214:5345   */\n      tag_131\n        /* \"#utility.yul\":5340:5344   */\n      dup2\n        /* \"#utility.yul\":5214:5345   */\n      tag_73\n      jump\t// in\n    tag_131:\n        /* \"#utility.yul\":5206:5345   */\n      swap1\n      pop\n        /* \"#utility.yul\":4933:5352   */\n      swap2\n      swap1\n      pop\n      jump\t// out\n        /* \"#utility.yul\":5358:5526   */\n    tag_74:\n        /* \"#utility.yul\":5498:5518   */\n      0x4e6f20616464726573732070726573656e740000000000000000000000000000\n        /* \"#utility.yul\":5494:5495   */\n      0x00\n        /* \"#utility.yul\":5486:5492   */\n      dup3\n        /* \"#utility.yul\":5482:5496   */\n      add\n        /* \"#utility.yul\":5475:5519   */\n      mstore\n        /* \"#utility.yul\":5358:5526   */\n      pop\n      jump\t// out\n        /* \"#utility.yul\":5532:5898   */\n    tag_75:\n        /* \"#utility.yul\":5674:5677   */\n      0x00\n        /* \"#utility.yul\":5695:5762   */\n      tag_134\n        /* \"#utility.yul\":5759:5761   */\n      0x12\n        /* \"#utility.yul\":5754:5757   */\n      dup4\n        /* \"#utility.yul\":5695:5762   */\n      tag_69\n      jump\t// in\n    tag_134:\n        /* \"#utility.yul\":5688:5762   */\n      swap2\n      pop\n        /* \"#utility.yul\":5771:5864   */\n      tag_135\n        /* \"#utility.yul\":5860:5863   */\n      dup3\n        /* \"#utility.yul\":5771:5864   */\n      tag_74\n      jump\t// in\n    tag_135:\n        /* \"#utility.yul\":5889:5891   */\n      0x20\n        /* \"#utility.yul\":5884:5887   */\n      dup3\n        /* \"#utility.yul\":5880:5892   */\n      add\n        /* \"#utility.yul\":5873:5892   */\n      swap1\n      pop\n        /* \"#utility.yul\":5532:5898   */\n      swap2\n      swap1\n      pop\n      jump\t// out\n        /* \"#utility.yul\":5904:6323   */\n    tag_47:\n        /* \"#utility.yul\":6070:6074   */\n      0x00\n        /* \"#utility.yul\":6108:6110   */\n      0x20\n        /* \"#utility.yul\":6097:6106   */\n      dup3\n        /* \"#utility.yul\":6093:6111   */\n      add\n        /* \"#utility.yul\":6085:6111   */\n      swap1\n      pop\n        /* \"#utility.yul\":6157:6166   */\n      dup2\n        /* \"#utility.yul\":6151:6155   */\n      dup2\n        /* \"#utility.yul\":6147:6167   */\n      sub\n        /* \"#utility.yul\":6143:6144   */\n      0x00\n        /* \"#utility.yul\":6132:6141   */\n      dup4\n        /* \"#utility.yul\":6128:6145   */\n      add\n        /* \"#utility.yul\":6121:6168   */\n      mstore\n        /* \"#utility.yul\":6185:6316   */\n      tag_137\n        /* \"#utility.yul\":6311:6315   */\n      dup2\n        /* \"#utility.yul\":6185:6316   */\n      tag_75\n      jump\t// in\n    tag_137:\n        /* \"#utility.yul\":6177:6316   */\n      swap1\n      pop\n        /* \"#utility.yul\":5904:6323   */\n      swap2\n      swap1\n      pop\n      jump\t// out\n        /* \"#utility.yul\":6329:6499   */\n    tag_76:\n        /* \"#utility.yul\":6469:6491   */\n      0x4e6f7420617574686f72697a6564206d65746572000000000000000000000000\n        /* \"#utility.yul\":6465:6466   */\n      0x00\n        /* \"#utility.yul\":6457:6463   */\n      dup3\n        /* \"#utility.yul\":6453:6467   */\n      add\n        /* \"#utility.yul\":6446:6492   */\n      mstore\n        /* \"#utility.yul\":6329:6499   */\n      pop\n      jump\t// out\n        /* \"#utility.yul\":6505:6871   */\n    tag_77:\n        /* \"#utility.yul\":6647:6650   */\n      0x00\n        /* \"#utility.yul\":6668:6735   */\n      tag_140\n        /* \"#utility.yul\":6732:6734   */\n      0x14\n        /* \"#utility.yul\":6727:6730   */\n      dup4\n        /* \"#utility.yul\":6668:6735   */\n      tag_69\n      jump\t// in\n    tag_140:\n        /* \"#utility.yul\":6661:6735   */\n      swap2\n      pop\n        /* \"#utility.yul\":6744:6837   */\n      tag_141\n        /* \"#utility.yul\":6833:6836   */\n      dup3\n        /* \"#utility.yul\":6744:6837   */\n      tag_76\n      jump\t// in\n    tag_141:\n        /* \"#utility.yul\":6862:6864   */\n      0x20\n        /* \"#utility.yul\":6857:6860   */\n      dup3\n        /* \"#utility.yul\":6853:6865   */\n      add\n        /* \"#utility.yul\":6846:6865   */\n      swap1\n      pop\n        /* \"#utility.yul\":6505:6871   */\n      swap2\n      swap1\n      pop\n      jump\t// out\n        /* \"#utility.yul\":6877:7296   */\n    tag_52:\n        /* \"#utility.yul\":7043:7047   */\n      0x00\n        /* \"#utility.yul\":7081:7083   */\n      0x20\n        /* \"#utility.yul\":7070:7079   */\n      dup3\n        /* \"#utility.yul\":7066:7084   */\n      add\n        /* \"#utility.yul\":7058:7084   */\n      swap1\n      pop\n        /* \"#utility.yul\":7130:7139   */\n      dup2\n        /* \"#utility.yul\":7124:7128   */\n      dup2\n        /* \"#utility.yul\":7120:7140   */\n      sub\n        /* \"#utility.yul\":7116:7117   */\n      0x00\n        /* \"#utility.yul\":7105:7114   */\n      dup4\n        /* \"#utility.yul\":7101:7118   */\n      add\n        /* \"#utility.yul\":7094:7141   */\n      mstore\n        /* \"#utility.yul\":7158:7289   */\n      tag_143\n        /* \"#utility.yul\":7284:7288   */\n      dup2\n        /* \"#utility.yul\":7158:7289   */\n      tag_77\n      jump\t// in\n    tag_143:\n        /* \"#utility.yul\":7150:7289   */\n      swap1\n      pop\n        /* \"#utility.yul\":6877:7296   */\n      swap2\n      swap1\n      pop\n      jump\t// out\n\n    auxdata: 0xa26469706673582212202dc47ee65ebcfd084bfe04010cf8c948b29912e8701cea883e8a3c0b4707eda764736f6c634300081e0033\n}\n",
				"bytecode": {
					"linkReferences": {},
					"object": "6080604052348015600e575f5ffd5b503360025f6101000a81548173ffffffffffffffffffffffffffffffffffffffff021916908373ffffffffffffffffffffffffffffffffffffffff1602179055506108fe8061005c5f395ff3fe608060405234801561000f575f5ffd5b506004361061005e575f3560e01c8061f1b3146100625780630ff985431461007e57806311054e281461009a5780634b0ac39d146100b9578063e5f5a1fe146100e9578063f851a44014610105575b5f5ffd5b61007c600480360381019061007791906105eb565b610123565b005b610098600480360381019061009391906105eb565b6102ba565b005b6100a2610452565b6040516100b092919061062e565b60405180910390f35b6100d360048036038101906100ce91906105eb565b610461565b6040516100e0919061066f565b60405180910390f35b61010360048036038101906100fe91906106b2565b61047e565b005b61010d610568565b60405161011a91906106ff565b60405180910390f35b60025f9054906101000a900473ffffffffffffffffffffffffffffffffffffffff1673ffffffffffffffffffffffffffffffffffffffff163373ffffffffffffffffffffffffffffffffffffffff16146101b2576040517f08c379a00000000000000000000000000000000000000000000000000000000081526004016101a990610772565b60405180910390fd5b5f73ffffffffffffffffffffffffffffffffffffffff168173ffffffffffffffffffffffffffffffffffffffff1603610220576040517f08c379a0000000000000000000000000000000000000000000000000000000008152600401610217906107da565b60405180910390fd5b5f60035f8373ffffffffffffffffffffffffffffffffffffffff1673ffffffffffffffffffffffffffffffffffffffff1681526020019081526020015f205f6101000a81548160ff0219169083151502179055508073ffffffffffffffffffffffffffffffffffffffff167f2718f71c8c668ecab17c4a97593a8f19f978e070877cc2331519841482da60c060405160405180910390a250565b60025f9054906101000a900473ffffffffffffffffffffffffffffffffffffffff1673ffffffffffffffffffffffffffffffffffffffff163373ffffffffffffffffffffffffffffffffffffffff1614610349576040517f08c379a000000000000000000000000000000000000000000000000000000000815260040161034090610772565b60405180910390fd5b5f73ffffffffffffffffffffffffffffffffffffffff168173ffffffffffffffffffffffffffffffffffffffff16036103b7576040517f08c379a00000000000000000000000000000000000000000000000000000000081526004016103ae90610842565b60405180910390fd5b600160035f8373ffffffffffffffffffffffffffffffffffffffff1673ffffffffffffffffffffffffffffffffffffffff1681526020019081526020015f205f6101000a81548160ff0219169083151502179055508073ffffffffffffffffffffffffffffffffffffffff167f52686047fe73c5082965d96118dd22fe902c785dcd7ea74f79dfc3d600993a6f60405160405180910390a250565b5f5f5f54600154915091509091565b6003602052805f5260405f205f915054906101000a900460ff1681565b60035f3373ffffffffffffffffffffffffffffffffffffffff1673ffffffffffffffffffffffffffffffffffffffff1681526020019081526020015f205f9054906101000a900460ff16610507576040517f08c379a00000000000000000000000000000000000000000000000000000000081526004016104fe906108aa565b60405180910390fd5b815f81905550806001819055503373ffffffffffffffffffffffffffffffffffffffff167f5298cbdfe4a1516062fa96c339b69d2fc92aa2afc21efb669f985cc4979e1fad838360405161055c92919061062e565b60405180910390a25050565b60025f9054906101000a900473ffffffffffffffffffffffffffffffffffffffff1681565b5f5ffd5b5f73ffffffffffffffffffffffffffffffffffffffff82169050919050565b5f6105ba82610591565b9050919050565b6105ca816105b0565b81146105d4575f5ffd5b50565b5f813590506105e5816105c1565b92915050565b5f60208284031215610600576105ff61058d565b5b5f61060d848285016105d7565b91505092915050565b5f819050919050565b61062881610616565b82525050565b5f6040820190506106415f83018561061f565b61064e602083018461061f565b9392505050565b5f8115159050919050565b61066981610655565b82525050565b5f6020820190506106825f830184610660565b92915050565b61069181610616565b811461069b575f5ffd5b50565b5f813590506106ac81610688565b92915050565b5f5f604083850312156106c8576106c761058d565b5b5f6106d58582860161069e565b92505060206106e68582860161069e565b9150509250929050565b6106f9816105b0565b82525050565b5f6020820190506107125f8301846106f0565b92915050565b5f82825260208201905092915050565b7f4e6f742061646d696e00000000000000000000000000000000000000000000005f82015250565b5f61075c600983610718565b915061076782610728565b602082019050919050565b5f6020820190508181035f83015261078981610750565b9050919050565b7f4e6f206164647265737320666f756e64000000000000000000000000000000005f82015250565b5f6107c4601083610718565b91506107cf82610790565b602082019050919050565b5f6020820190508181035f8301526107f1816107b8565b9050919050565b7f4e6f20616464726573732070726573656e7400000000000000000000000000005f82015250565b5f61082c601283610718565b9150610837826107f8565b602082019050919050565b5f6020820190508181035f83015261085981610820565b9050919050565b7f4e6f7420617574686f72697a6564206d657465720000000000000000000000005f82015250565b5f610894601483610718565b915061089f82610860565b602082019050919050565b5f6020820190508181035f8301526108c181610888565b905091905056fea26469706673582212202dc47ee65ebcfd084bfe04010cf8c948b29912e8701cea883e8a3c0b4707eda764736f6c634300081e0033",
					"opcodes": "PUSH1 0x80 PUSH1 0x40 MSTORE CALLVALUE DUP1 ISZERO PUSH1 0xE JUMPI PUSH0 PUSH0 REVERT JUMPDEST POP CALLER PUSH1 0x2 PUSH0 PUSH2 0x100 EXP DUP2 SLOAD DUP2 PUSH20 0xFFFFFFFFFFFFFFFFFFFFFFFFFFFFFFFFFFFFFFFF MUL NOT AND SWAP1 DUP4 PUSH20 0xFFFFFFFFFFFFFFFFFFFFFFFFFFFFFFFFFFFFFFFF AND MUL OR SWAP1 SSTORE POP PUSH2 0x8FE DUP1 PUSH2 0x5C PUSH0 CODECOPY PUSH0 RETURN INVALID PUSH1 0x80 PUSH1 0x40 MSTORE CALLVALUE DUP1 ISZERO PUSH2 0xF JUMPI PUSH0 PUSH0 REVERT JUMPDEST POP PUSH1 0x4 CALLDATASIZE LT PUSH2 0x5E JUMPI PUSH0 CALLDATALOAD PUSH1 0xE0 SHR DUP1 PUSH2 0xF1B3 EQ PUSH2 0x62 JUMPI DUP1 PUSH4 0xFF98543 EQ PUSH2 0x7E JUMPI DUP1 PUSH4 0x11054E28 EQ PUSH2 0x9A JUMPI DUP1 PUSH4 0x4B0AC39D EQ PUSH2 0xB9 JUMPI DUP1 PUSH4 0xE5F5A1FE EQ PUSH2 0xE9 JUMPI DUP1 PUSH4 0xF851A440 EQ PUSH2 0x105 JUMPI JUMPDEST PUSH0 PUSH0 REVERT JUMPDEST PUSH2 0x7C PUSH1 0x4 DUP1 CALLDATASIZE SUB DUP2 ADD SWAP1 PUSH2 0x77 SWAP2 SWAP1 PUSH2 0x5EB JUMP JUMPDEST PUSH2 0x123 JUMP JUMPDEST STOP JUMPDEST PUSH2 0x98 PUSH1 0x4 DUP1 CALLDATASIZE SUB DUP2 ADD SWAP1 PUSH2 0x93 SWAP2 SWAP1 PUSH2 0x5EB JUMP JUMPDEST PUSH2 0x2BA JUMP JUMPDEST STOP JUMPDEST PUSH2 0xA2 PUSH2 0x452 JUMP JUMPDEST PUSH1 0x40 MLOAD PUSH2 0xB0 SWAP3 SWAP2 SWAP1 PUSH2 0x62E JUMP JUMPDEST PUSH1 0x40 MLOAD DUP1 SWAP2 SUB SWAP1 RETURN JUMPDEST PUSH2 0xD3 PUSH1 0x4 DUP1 CALLDATASIZE SUB DUP2 ADD SWAP1 PUSH2 0xCE SWAP2 SWAP1 PUSH2 0x5EB JUMP JUMPDEST PUSH2 0x461 JUMP JUMPDEST PUSH1 0x40 MLOAD PUSH2 0xE0 SWAP2 SWAP1 PUSH2 0x66F JUMP JUMPDEST PUSH1 0x40 MLOAD DUP1 SWAP2 SUB SWAP1 RETURN JUMPDEST PUSH2 0x103 PUSH1 0x4 DUP1 CALLDATASIZE SUB DUP2 ADD SWAP1 PUSH2 0xFE SWAP2 SWAP1 PUSH2 0x6B2 JUMP JUMPDEST PUSH2 0x47E JUMP JUMPDEST STOP JUMPDEST PUSH2 0x10D PUSH2 0x568 JUMP JUMPDEST PUSH1 0x40 MLOAD PUSH2 0x11A SWAP2 SWAP1 PUSH2 0x6FF JUMP JUMPDEST PUSH1 0x40 MLOAD DUP1 SWAP2 SUB SWAP1 RETURN JUMPDEST PUSH1 0x2 PUSH0 SWAP1 SLOAD SWAP1 PUSH2 0x100 EXP SWAP1 DIV PUSH20 0xFFFFFFFFFFFFFFFFFFFFFFFFFFFFFFFFFFFFFFFF AND PUSH20 0xFFFFFFFFFFFFFFFFFFFFFFFFFFFFFFFFFFFFFFFF AND CALLER PUSH20 0xFFFFFFFFFFFFFFFFFFFFFFFFFFFFFFFFFFFFFFFF AND EQ PUSH2 0x1B2 JUMPI PUSH1 0x40 MLOAD PUSH32 0x8C379A000000000000000000000000000000000000000000000000000000000 DUP2 MSTORE PUSH1 0x4 ADD PUSH2 0x1A9 SWAP1 PUSH2 0x772 JUMP JUMPDEST PUSH1 0x40 MLOAD DUP1 SWAP2 SUB SWAP1 REVERT JUMPDEST PUSH0 PUSH20 0xFFFFFFFFFFFFFFFFFFFFFFFFFFFFFFFFFFFFFFFF AND DUP2 PUSH20 0xFFFFFFFFFFFFFFFFFFFFFFFFFFFFFFFFFFFFFFFF AND SUB PUSH2 0x220 JUMPI PUSH1 0x40 MLOAD PUSH32 0x8C379A000000000000000000000000000000000000000000000000000000000 DUP2 MSTORE PUSH1 0x4 ADD PUSH2 0x217 SWAP1 PUSH2 0x7DA JUMP JUMPDEST PUSH1 0x40 MLOAD DUP1 SWAP2 SUB SWAP1 REVERT JUMPDEST PUSH0 PUSH1 0x3 PUSH0 DUP4 PUSH20 0xFFFFFFFFFFFFFFFFFFFFFFFFFFFFFFFFFFFFFFFF AND PUSH20 0xFFFFFFFFFFFFFFFFFFFFFFFFFFFFFFFFFFFFFFFF AND DUP2 MSTORE PUSH1 0x20 ADD SWAP1 DUP2 MSTORE PUSH1 0x20 ADD PUSH0 KECCAK256 PUSH0 PUSH2 0x100 EXP DUP2 SLOAD DUP2 PUSH1 0xFF MUL NOT AND SWAP1 DUP4 ISZERO ISZERO MUL OR SWAP1 SSTORE POP DUP1 PUSH20 0xFFFFFFFFFFFFFFFFFFFFFFFFFFFFFFFFFFFFFFFF AND PUSH32 0x2718F71C8C668ECAB17C4A97593A8F19F978E070877CC2331519841482DA60C0 PUSH1 0x40 MLOAD PUSH1 0x40 MLOAD DUP1 SWAP2 SUB SWAP1 LOG2 POP JUMP JUMPDEST PUSH1 0x2 PUSH0 SWAP1 SLOAD SWAP1 PUSH2 0x100 EXP SWAP1 DIV PUSH20 0xFFFFFFFFFFFFFFFFFFFFFFFFFFFFFFFFFFFFFFFF AND PUSH20 0xFFFFFFFFFFFFFFFFFFFFFFFFFFFFFFFFFFFFFFFF AND CALLER PUSH20 0xFFFFFFFFFFFFFFFFFFFFFFFFFFFFFFFFFFFFFFFF AND EQ PUSH2 0x349 JUMPI PUSH1 0x40 MLOAD PUSH32 0x8C379A000000000000000000000000000000000000000000000000000000000 DUP2 MSTORE PUSH1 0x4 ADD PUSH2 0x340 SWAP1 PUSH2 0x772 JUMP JUMPDEST PUSH1 0x40 MLOAD DUP1 SWAP2 SUB SWAP1 REVERT JUMPDEST PUSH0 PUSH20 0xFFFFFFFFFFFFFFFFFFFFFFFFFFFFFFFFFFFFFFFF AND DUP2 PUSH20 0xFFFFFFFFFFFFFFFFFFFFFFFFFFFFFFFFFFFFFFFF AND SUB PUSH2 0x3B7 JUMPI PUSH1 0x40 MLOAD PUSH32 0x8C379A000000000000000000000000000000000000000000000000000000000 DUP2 MSTORE PUSH1 0x4 ADD PUSH2 0x3AE SWAP1 PUSH2 0x842 JUMP JUMPDEST PUSH1 0x40 MLOAD DUP1 SWAP2 SUB SWAP1 REVERT JUMPDEST PUSH1 0x1 PUSH1 0x3 PUSH0 DUP4 PUSH20 0xFFFFFFFFFFFFFFFFFFFFFFFFFFFFFFFFFFFFFFFF AND PUSH20 0xFFFFFFFFFFFFFFFFFFFFFFFFFFFFFFFFFFFFFFFF AND DUP2 MSTORE PUSH1 0x20 ADD SWAP1 DUP2 MSTORE PUSH1 0x20 ADD PUSH0 KECCAK256 PUSH0 PUSH2 0x100 EXP DUP2 SLOAD DUP2 PUSH1 0xFF MUL NOT AND SWAP1 DUP4 ISZERO ISZERO MUL OR SWAP1 SSTORE POP DUP1 PUSH20 0xFFFFFFFFFFFFFFFFFFFFFFFFFFFFFFFFFFFFFFFF AND PUSH32 0x52686047FE73C5082965D96118DD22FE902C785DCD7EA74F79DFC3D600993A6F PUSH1 0x40 MLOAD PUSH1 0x40 MLOAD DUP1 SWAP2 SUB SWAP1 LOG2 POP JUMP JUMPDEST PUSH0 PUSH0 PUSH0 SLOAD PUSH1 0x1 SLOAD SWAP2 POP SWAP2 POP SWAP1 SWAP2 JUMP JUMPDEST PUSH1 0x3 PUSH1 0x20 MSTORE DUP1 PUSH0 MSTORE PUSH1 0x40 PUSH0 KECCAK256 PUSH0 SWAP2 POP SLOAD SWAP1 PUSH2 0x100 EXP SWAP1 DIV PUSH1 0xFF AND DUP2 JUMP JUMPDEST PUSH1 0x3 PUSH0 CALLER PUSH20 0xFFFFFFFFFFFFFFFFFFFFFFFFFFFFFFFFFFFFFFFF AND PUSH20 0xFFFFFFFFFFFFFFFFFFFFFFFFFFFFFFFFFFFFFFFF AND DUP2 MSTORE PUSH1 0x20 ADD SWAP1 DUP2 MSTORE PUSH1 0x20 ADD PUSH0 KECCAK256 PUSH0 SWAP1 SLOAD SWAP1 PUSH2 0x100 EXP SWAP1 DIV PUSH1 0xFF AND PUSH2 0x507 JUMPI PUSH1 0x40 MLOAD PUSH32 0x8C379A000000000000000000000000000000000000000000000000000000000 DUP2 MSTORE PUSH1 0x4 ADD PUSH2 0x4FE SWAP1 PUSH2 0x8AA JUMP JUMPDEST PUSH1 0x40 MLOAD DUP1 SWAP2 SUB SWAP1 REVERT JUMPDEST DUP2 PUSH0 DUP2 SWAP1 SSTORE POP DUP1 PUSH1 0x1 DUP2 SWAP1 SSTORE POP CALLER PUSH20 0xFFFFFFFFFFFFFFFFFFFFFFFFFFFFFFFFFFFFFFFF AND PUSH32 0x5298CBDFE4A1516062FA96C339B69D2FC92AA2AFC21EFB669F985CC4979E1FAD DUP4 DUP4 PUSH1 0x40 MLOAD PUSH2 0x55C SWAP3 SWAP2 SWAP1 PUSH2 0x62E JUMP JUMPDEST PUSH1 0x40 MLOAD DUP1 SWAP2 SUB SWAP1 LOG2 POP POP JUMP JUMPDEST PUSH1 0x2 PUSH0 SWAP1 SLOAD SWAP1 PUSH2 0x100 EXP SWAP1 DIV PUSH20 0xFFFFFFFFFFFFFFFFFFFFFFFFFFFFFFFFFFFFFFFF AND DUP2 JUMP JUMPDEST PUSH0 PUSH0 REVERT JUMPDEST PUSH0 PUSH20 0xFFFFFFFFFFFFFFFFFFFFFFFFFFFFFFFFFFFFFFFF DUP3 AND SWAP1 POP SWAP2 SWAP1 POP JUMP JUMPDEST PUSH0 PUSH2 0x5BA DUP3 PUSH2 0x591 JUMP JUMPDEST SWAP1 POP SWAP2 SWAP1 POP JUMP JUMPDEST PUSH2 0x5CA DUP2 PUSH2 0x5B0 JUMP JUMPDEST DUP2 EQ PUSH2 0x5D4 JUMPI PUSH0 PUSH0 REVERT JUMPDEST POP JUMP JUMPDEST PUSH0 DUP2 CALLDATALOAD SWAP1 POP PUSH2 0x5E5 DUP2 PUSH2 0x5C1 JUMP JUMPDEST SWAP3 SWAP2 POP POP JUMP JUMPDEST PUSH0 PUSH1 0x20 DUP3 DUP5 SUB SLT ISZERO PUSH2 0x600 JUMPI PUSH2 0x5FF PUSH2 0x58D JUMP JUMPDEST JUMPDEST PUSH0 PUSH2 0x60D DUP5 DUP3 DUP6 ADD PUSH2 0x5D7 JUMP JUMPDEST SWAP2 POP POP SWAP3 SWAP2 POP POP JUMP JUMPDEST PUSH0 DUP2 SWAP1 POP SWAP2 SWAP1 POP JUMP JUMPDEST PUSH2 0x628 DUP2 PUSH2 0x616 JUMP JUMPDEST DUP3 MSTORE POP POP JUMP JUMPDEST PUSH0 PUSH1 0x40 DUP3 ADD SWAP1 POP PUSH2 0x641 PUSH0 DUP4 ADD DUP6 PUSH2 0x61F JUMP JUMPDEST PUSH2 0x64E PUSH1 0x20 DUP4 ADD DUP5 PUSH2 0x61F JUMP JUMPDEST SWAP4 SWAP3 POP POP POP JUMP JUMPDEST PUSH0 DUP2 ISZERO ISZERO SWAP1 POP SWAP2 SWAP1 POP JUMP JUMPDEST PUSH2 0x669 DUP2 PUSH2 0x655 JUMP JUMPDEST DUP3 MSTORE POP POP JUMP JUMPDEST PUSH0 PUSH1 0x20 DUP3 ADD SWAP1 POP PUSH2 0x682 PUSH0 DUP4 ADD DUP5 PUSH2 0x660 JUMP JUMPDEST SWAP3 SWAP2 POP POP JUMP JUMPDEST PUSH2 0x691 DUP2 PUSH2 0x616 JUMP JUMPDEST DUP2 EQ PUSH2 0x69B JUMPI PUSH0 PUSH0 REVERT JUMPDEST POP JUMP JUMPDEST PUSH0 DUP2 CALLDATALOAD SWAP1 POP PUSH2 0x6AC DUP2 PUSH2 0x688 JUMP JUMPDEST SWAP3 SWAP2 POP POP JUMP JUMPDEST PUSH0 PUSH0 PUSH1 0x40 DUP4 DUP6 SUB SLT ISZERO PUSH2 0x6C8 JUMPI PUSH2 0x6C7 PUSH2 0x58D JUMP JUMPDEST JUMPDEST PUSH0 PUSH2 0x6D5 DUP6 DUP3 DUP7 ADD PUSH2 0x69E JUMP JUMPDEST SWAP3 POP POP PUSH1 0x20 PUSH2 0x6E6 DUP6 DUP3 DUP7 ADD PUSH2 0x69E JUMP JUMPDEST SWAP2 POP POP SWAP3 POP SWAP3 SWAP1 POP JUMP JUMPDEST PUSH2 0x6F9 DUP2 PUSH2 0x5B0 JUMP JUMPDEST DUP3 MSTORE POP POP JUMP JUMPDEST PUSH0 PUSH1 0x20 DUP3 ADD SWAP1 POP PUSH2 0x712 PUSH0 DUP4 ADD DUP5 PUSH2 0x6F0 JUMP JUMPDEST SWAP3 SWAP2 POP POP JUMP JUMPDEST PUSH0 DUP3 DUP3 MSTORE PUSH1 0x20 DUP3 ADD SWAP1 POP SWAP3 SWAP2 POP POP JUMP JUMPDEST PUSH32 0x4E6F742061646D696E0000000000000000000000000000000000000000000000 PUSH0 DUP3 ADD MSTORE POP JUMP JUMPDEST PUSH0 PUSH2 0x75C PUSH1 0x9 DUP4 PUSH2 0x718 JUMP JUMPDEST SWAP2 POP PUSH2 0x767 DUP3 PUSH2 0x728 JUMP JUMPDEST PUSH1 0x20 DUP3 ADD SWAP1 POP SWAP2 SWAP1 POP JUMP JUMPDEST PUSH0 PUSH1 0x20 DUP3 ADD SWAP1 POP DUP2 DUP2 SUB PUSH0 DUP4 ADD MSTORE PUSH2 0x789 DUP2 PUSH2 0x750 JUMP JUMPDEST SWAP1 POP SWAP2 SWAP1 POP JUMP JUMPDEST PUSH32 0x4E6F206164647265737320666F756E6400000000000000000000000000000000 PUSH0 DUP3 ADD MSTORE POP JUMP JUMPDEST PUSH0 PUSH2 0x7C4 PUSH1 0x10 DUP4 PUSH2 0x718 JUMP JUMPDEST SWAP2 POP PUSH2 0x7CF DUP3 PUSH2 0x790 JUMP JUMPDEST PUSH1 0x20 DUP3 ADD SWAP1 POP SWAP2 SWAP1 POP JUMP JUMPDEST PUSH0 PUSH1 0x20 DUP3 ADD SWAP1 POP DUP2 DUP2 SUB PUSH0 DUP4 ADD MSTORE PUSH2 0x7F1 DUP2 PUSH2 0x7B8 JUMP JUMPDEST SWAP1 POP SWAP2 SWAP1 POP JUMP JUMPDEST PUSH32 0x4E6F20616464726573732070726573656E740000000000000000000000000000 PUSH0 DUP3 ADD MSTORE POP JUMP JUMPDEST PUSH0 PUSH2 0x82C PUSH1 0x12 DUP4 PUSH2 0x718 JUMP JUMPDEST SWAP2 POP PUSH2 0x837 DUP3 PUSH2 0x7F8 JUMP JUMPDEST PUSH1 0x20 DUP3 ADD SWAP1 POP SWAP2 SWAP1 POP JUMP JUMPDEST PUSH0 PUSH1 0x20 DUP3 ADD SWAP1 POP DUP2 DUP2 SUB PUSH0 DUP4 ADD MSTORE PUSH2 0x859 DUP2 PUSH2 0x820 JUMP JUMPDEST SWAP1 POP SWAP2 SWAP1 POP JUMP JUMPDEST PUSH32 0x4E6F7420617574686F72697A6564206D65746572000000000000000000000000 PUSH0 DUP3 ADD MSTORE POP JUMP JUMPDEST PUSH0 PUSH2 0x894 PUSH1 0x14 DUP4 PUSH2 0x718 JUMP JUMPDEST SWAP2 POP PUSH2 0x89F DUP3 PUSH2 0x860 JUMP JUMPDEST PUSH1 0x20 DUP3 ADD SWAP1 POP SWAP2 SWAP1 POP JUMP JUMPDEST PUSH0 PUSH1 0x20 DUP3 ADD SWAP1 POP DUP2 DUP2 SUB PUSH0 DUP4 ADD MSTORE PUSH2 0x8C1 DUP2 PUSH2 0x888 JUMP JUMPDEST SWAP1 POP SWAP2 SWAP1 POP JUMP INVALID LOG2 PUSH5 0x6970667358 0x22 SLT KECCAK256 0x2D 0xC4 PUSH31 0xE65EBCFD084BFE04010CF8C948B29912E8701CEA883E8A3C0B4707EDA76473 PUSH16 0x6C634300081E00330000000000000000 "
				},
				"gasEstimates": {
					"creation": {
						"codeDepositCost": "460400",
						"executionCost": "24756",
						"totalCost": "485156"
					},
					"external": {
						"admin()": "2596",
						"getEnergyData()": "infinite",
						"isMeter(address)": "2877",
						"registerMeter(address)": "28167",
						"removeMeter(address)": "28144",
						"setEnergyData(uint256,uint256)": "infinite"
					}
				},
				"methodIdentifiers": {
					"admin()": "f851a440",
					"getEnergyData()": "11054e28",
					"isMeter(address)": "4b0ac39d",
					"registerMeter(address)": "0ff98543",
					"removeMeter(address)": "0000f1b3",
					"setEnergyData(uint256,uint256)": "e5f5a1fe"
				}
			},
			"storageLayout": {
				"storage": [
					{
						"astId": 3,
						"contract": "contracts/2_MockOracle.sol:MockOracle",
						"label": "productionData",
						"offset": 0,
						"slot": "0",
						"type": "t_uint256"
					},
					{
						"astId": 5,
						"contract": "contracts/2_MockOracle.sol:MockOracle",
						"label": "consumptionData",
						"offset": 0,
						"slot": "1",
						"type": "t_uint256"
					},
					{
						"astId": 7,
						"contract": "contracts/2_MockOracle.sol:MockOracle",
						"label": "admin",
						"offset": 0,
						"slot": "2",
						"type": "t_address"
					},
					{
						"astId": 11,
						"contract": "contracts/2_MockOracle.sol:MockOracle",
						"label": "isMeter",
						"offset": 0,
						"slot": "3",
						"type": "t_mapping(t_address,t_bool)"
					}
				],
				"types": {
					"t_address": {
						"encoding": "inplace",
						"label": "address",
						"numberOfBytes": "20"
					},
					"t_bool": {
						"encoding": "inplace",
						"label": "bool",
						"numberOfBytes": "1"
					},
					"t_mapping(t_address,t_bool)": {
						"encoding": "mapping",
						"key": "t_address",
						"label": "mapping(address => bool)",
						"numberOfBytes": "32",
						"value": "t_bool"
					},
					"t_uint256": {
						"encoding": "inplace",
						"label": "uint256",
						"numberOfBytes": "32"
					}
				}
			},
			"userdoc": {
				"kind": "user",
				"methods": {},
				"version": 1
			}
		}
	}
}