{
	"contracts/1_Energy_Monitor.sol": {
		"EnergyMonitor": {
			"abi": [
				{
					"inputs": [
						{
							"internalType": "address",
							"name": "oracleAddress",
							"type": "address"
						}
					],
					"stateMutability": "nonpayable",
					"type": "constructor"
				},
				{
					"inputs": [],
					"name": "checkExcessEnergy",
					"outputs": [
						{
							"internalType": "bool",
							"name": "hasExcess",
							"type": "bool"
						},
						{
							"internalType": "uint256",
							"name": "excessAmount",
							"type": "uint256"
						}
					],
					"stateMutability": "view",
					"type": "function"
				}
			],
			"devdoc": {
				"kind": "dev",
				"methods": {},
				"version": 1
			},
			"evm": {
				"assembly": "    /* \"contracts/1_Energy_Monitor.sol\":172:614  contract EnergyMonitor {... */\n  mstore(0x40, 0x80)\n    /* \"contracts/1_Energy_Monitor.sol\":234:316  constructor(address oracleAddress){... */\n  callvalue\n  dup1\n  iszero\n  tag_1\n  jumpi\n  revert(0x00, 0x00)\ntag_1:\n  pop\n  mload(0x40)\n  sub(codesize, bytecodeSize)\n  dup1\n  bytecodeSize\n  dup4\n  codecopy\n  dup2\n  dup2\n  add\n  0x40\n  mstore\n  dup2\n  add\n  swap1\n  tag_2\n  swap2\n  swap1\n  tag_3\n  jump\t// in\ntag_2:\n    /* \"contracts/1_Energy_Monitor.sol\":295:308  oracleAddress */\n  dup1\n    /* \"contracts/1_Energy_Monitor.sol\":278:284  oracle */\n  0x00\n  0x00\n    /* \"contracts/1_Energy_Monitor.sol\":278:309  oracle = IOracle(oracleAddress) */\n  0x0100\n  exp\n  dup2\n  sload\n  dup2\n  0xffffffffffffffffffffffffffffffffffffffff\n  mul\n  not\n  and\n  swap1\n  dup4\n  0xffffffffffffffffffffffffffffffffffffffff\n  and\n  mul\n  or\n  swap1\n  sstore\n  pop\n    /* \"contracts/1_Energy_Monitor.sol\":234:316  constructor(address oracleAddress){... */\n  pop\n    /* \"contracts/1_Energy_Monitor.sol\":172:614  contract EnergyMonitor {... */\n  jump(tag_6)\n    /* \"#utility.yul\":88:205   */\ntag_8:\n    /* \"#utility.yul\":197:198   */\n  0x00\n    /* \"#utility.yul\":194:195   */\n  0x00\n    /* \"#utility.yul\":187:199   */\n  revert\n    /* \"#utility.yul\":334:460   */\ntag_10:\n    /* \"#utility.yul\":371:378   */\n  0x00\n    /* \"#utility.yul\":411:453   */\n  0xffffffffffffffffffffffffffffffffffffffff\n    /* \"#utility.yul\":404:409   */\n  dup3\n    /* \"#utility.yul\":400:454   */\n  and\n    /* \"#utility.yul\":389:454   */\n  swap1\n  pop\n    /* \"#utility.yul\":334:460   */\n  swap2\n  swap1\n  pop\n  jump\t// out\n    /* \"#utility.yul\":466:562   */\ntag_11:\n    /* \"#utility.yul\":503:510   */\n  0x00\n    /* \"#utility.yul\":532:556   */\n  tag_20\n    /* \"#utility.yul\":550:555   */\n  dup3\n    /* \"#utility.yul\":532:556   */\n  tag_10\n  jump\t// in\ntag_20:\n    /* \"#utility.yul\":521:556   */\n  swap1\n  pop\n    /* \"#utility.yul\":466:562   */\n  swap2\n  swap1\n  pop\n  jump\t// out\n    /* \"#utility.yul\":568:690   */\ntag_12:\n    /* \"#utility.yul\":641:665   */\n  tag_22\n    /* \"#utility.yul\":659:664   */\n  dup2\n    /* \"#utility.yul\":641:665   */\n  tag_11\n  jump\t// in\ntag_22:\n    /* \"#utility.yul\":634:639   */\n  dup2\n    /* \"#utility.yul\":631:666   */\n  eq\n    /* \"#utility.yul\":621:684   */\n  tag_23\n  jumpi\n    /* \"#utility.yul\":680:681   */\n  0x00\n    /* \"#utility.yul\":677:678   */\n  0x00\n    /* \"#utility.yul\":670:682   */\n  revert\n    /* \"#utility.yul\":621:684   */\ntag_23:\n    /* \"#utility.yul\":568:690   */\n  pop\n  jump\t// out\n    /* \"#utility.yul\":696:839   */\ntag_13:\n    /* \"#utility.yul\":753:758   */\n  0x00\n    /* \"#utility.yul\":784:790   */\n  dup2\n    /* \"#utility.yul\":778:791   */\n  mload\n    /* \"#utility.yul\":769:791   */\n  swap1\n  pop\n    /* \"#utility.yul\":800:833   */\n  tag_25\n    /* \"#utility.yul\":827:832   */\n  dup2\n    /* \"#utility.yul\":800:833   */\n  tag_12\n  jump\t// in\ntag_25:\n    /* \"#utility.yul\":696:839   */\n  swap3\n  swap2\n  pop\n  pop\n  jump\t// out\n    /* \"#utility.yul\":845:1196   */\ntag_3:\n    /* \"#utility.yul\":915:921   */\n  0x00\n    /* \"#utility.yul\":964:966   */\n  0x20\n    /* \"#utility.yul\":952:961   */\n  dup3\n    /* \"#utility.yul\":943:950   */\n  dup5\n    /* \"#utility.yul\":939:962   */\n  sub\n    /* \"#utility.yul\":935:967   */\n  slt\n    /* \"#utility.yul\":932:1051   */\n  iszero\n  tag_27\n  jumpi\n    /* \"#utility.yul\":970:1049   */\n  tag_28\n  tag_8\n  jump\t// in\ntag_28:\n    /* \"#utility.yul\":932:1051   */\ntag_27:\n    /* \"#utility.yul\":1090:1091   */\n  0x00\n    /* \"#utility.yul\":1115:1179   */\n  tag_29\n    /* \"#utility.yul\":1171:1178   */\n  dup5\n    /* \"#utility.yul\":1162:1168   */\n  dup3\n    /* \"#utility.yul\":1151:1160   */\n  dup6\n    /* \"#utility.yul\":1147:1169   */\n  add\n    /* \"#utility.yul\":1115:1179   */\n  tag_13\n  jump\t// in\ntag_29:\n    /* \"#utility.yul\":1105:1179   */\n  swap2\n  pop\n    /* \"#utility.yul\":1061:1189   */\n  pop\n    /* \"#utility.yul\":845:1196   */\n  swap3\n  swap2\n  pop\n  pop\n  jump\t// out\n    /* \"contracts/1_Energy_Monitor.sol\":172:614  contract EnergyMonitor {... */\ntag_6:\n  dataSize(sub_0)\n  dup1\n  dataOffset(sub_0)\n  0x00\n  codecopy\n  0x00\n  return\nstop\n\nsub_0: assembly {\n        /* \"contracts/1_Energy_Monitor.sol\":172:614  contract EnergyMonitor {... */\n      mstore(0x40, 0x80)\n      callvalue\n      dup1\n      iszero\n      tag_1\n      jumpi\n      revert(0x00, 0x00)\n    tag_1:\n      pop\n      jumpi(tag_2, lt(calldatasize, 0x04))\n      shr(0xe0, calldataload(0x00))\n      dup1\n      0x141ad668\n      eq\n      tag_3\n      jumpi\n    tag_2:\n      revert(0x00, 0x00)\n        /* \"contracts/1_Energy_Monitor.sol\":322:612  function checkExcessEnergy() external view returns (bool hasExcess, uint excessAmount) {... */\n    tag_3:\n      tag_4\n      tag_5\n      jump\t// in\n    tag_4:\n      mload(0x40)\n      tag_6\n      swap3\n      swap2\n      swap1\n      tag_7\n      jump\t// in\n    tag_6:\n      mload(0x40)\n      dup1\n      swap2\n      sub\n      swap1\n      return\n    tag_5:\n        /* \"contracts/1_Energy_Monitor.sol\":374:388  bool hasExcess */\n      0x00\n        /* \"contracts/1_Energy_Monitor.sol\":390:407  uint excessAmount */\n      0x00\n        /* \"contracts/1_Energy_Monitor.sol\":420:435  uint production */\n      0x00\n        /* \"contracts/1_Energy_Monitor.sol\":437:453  uint consumption */\n      0x00\n        /* \"contracts/1_Energy_Monitor.sol\":457:463  oracle */\n      0x00\n      0x00\n      swap1\n      sload\n      swap1\n      0x0100\n      exp\n      swap1\n      div\n      0xffffffffffffffffffffffffffffffffffffffff\n      and\n        /* \"contracts/1_Energy_Monitor.sol\":457:477  oracle.getEnergyData */\n      0xffffffffffffffffffffffffffffffffffffffff\n      and\n      0x11054e28\n        /* \"contracts/1_Energy_Monitor.sol\":457:479  oracle.getEnergyData() */\n      mload(0x40)\n      dup2\n      0xffffffff\n      and\n      0xe0\n      shl\n      dup2\n      mstore\n      0x04\n      add\n      0x40\n      dup1\n      mload\n      dup1\n      dup4\n      sub\n      dup2\n      dup7\n      gas\n      staticcall\n      iszero\n      dup1\n      iszero\n      tag_10\n      jumpi\n      returndatacopy(0x00, 0x00, returndatasize)\n      revert(0x00, returndatasize)\n    tag_10:\n      pop\n      pop\n      pop\n      pop\n      mload(0x40)\n      returndatasize\n      not(0x1f)\n      0x1f\n      dup3\n      add\n      and\n      dup3\n      add\n      dup1\n      0x40\n      mstore\n      pop\n      dup2\n      add\n      swap1\n      tag_11\n      swap2\n      swap1\n      tag_12\n      jump\t// in\n    tag_11:\n        /* \"contracts/1_Energy_Monitor.sol\":419:479  (uint production, uint consumption) = oracle.getEnergyData() */\n      swap2\n      pop\n      swap2\n      pop\n        /* \"contracts/1_Energy_Monitor.sol\":504:515  consumption */\n      dup1\n        /* \"contracts/1_Energy_Monitor.sol\":493:503  production */\n      dup3\n        /* \"contracts/1_Energy_Monitor.sol\":493:515  production>consumption */\n      gt\n        /* \"contracts/1_Energy_Monitor.sol\":490:580  if(production>consumption){... */\n      iszero\n      tag_13\n      jumpi\n        /* \"contracts/1_Energy_Monitor.sol\":538:542  true */\n      0x01\n        /* \"contracts/1_Energy_Monitor.sol\":557:568  consumption */\n      dup2\n        /* \"contracts/1_Energy_Monitor.sol\":544:554  production */\n      dup4\n        /* \"contracts/1_Energy_Monitor.sol\":544:568  production - consumption */\n      tag_14\n      swap2\n      swap1\n      tag_15\n      jump\t// in\n    tag_14:\n        /* \"contracts/1_Energy_Monitor.sol\":530:569  return (true, production - consumption) */\n      swap4\n      pop\n      swap4\n      pop\n      pop\n      pop\n      jump(tag_8)\n        /* \"contracts/1_Energy_Monitor.sol\":490:580  if(production>consumption){... */\n    tag_13:\n        /* \"contracts/1_Energy_Monitor.sol\":597:602  false */\n      0x00\n        /* \"contracts/1_Energy_Monitor.sol\":603:604  0 */\n      0x00\n        /* \"contracts/1_Energy_Monitor.sol\":589:605  return (false,0) */\n      swap4\n      pop\n      swap4\n      pop\n      pop\n      pop\n        /* \"contracts/1_Energy_Monitor.sol\":322:612  function checkExcessEnergy() external view returns (bool hasExcess, uint excessAmount) {... */\n    tag_8:\n      swap1\n      swap2\n      jump\t// out\n        /* \"#utility.yul\":7:97   */\n    tag_16:\n        /* \"#utility.yul\":41:48   */\n      0x00\n        /* \"#utility.yul\":84:89   */\n      dup2\n        /* \"#utility.yul\":77:90   */\n      iszero\n        /* \"#utility.yul\":70:91   */\n      iszero\n        /* \"#utility.yul\":59:91   */\n      swap1\n      pop\n        /* \"#utility.yul\":7:97   */\n      swap2\n      swap1\n      pop\n      jump\t// out\n        /* \"#utility.yul\":103:212   */\n    tag_17:\n        /* \"#utility.yul\":184:205   */\n      tag_29\n        /* \"#utility.yul\":199:204   */\n      dup2\n        /* \"#utility.yul\":184:205   */\n      tag_16\n      jump\t// in\n    tag_29:\n        /* \"#utility.yul\":179:182   */\n      dup3\n        /* \"#utility.yul\":172:206   */\n      mstore\n        /* \"#utility.yul\":103:212   */\n      pop\n      pop\n      jump\t// out\n        /* \"#utility.yul\":218:295   */\n    tag_18:\n        /* \"#utility.yul\":255:262   */\n      0x00\n        /* \"#utility.yul\":284:289   */\n      dup2\n        /* \"#utility.yul\":273:289   */\n      swap1\n      pop\n        /* \"#utility.yul\":218:295   */\n      swap2\n      swap1\n      pop\n      jump\t// out\n        /* \"#utility.yul\":301:419   */\n    tag_19:\n        /* \"#utility.yul\":388:412   */\n      tag_32\n        /* \"#utility.yul\":406:411   */\n      dup2\n        /* \"#utility.yul\":388:412   */\n      tag_18\n      jump\t// in\n    tag_32:\n        /* \"#utility.yul\":383:386   */\n      dup3\n        /* \"#utility.yul\":376:413   */\n      mstore\n        /* \"#utility.yul\":301:419   */\n      pop\n      pop\n      jump\t// out\n        /* \"#utility.yul\":425:745   */\n    tag_7:\n        /* \"#utility.yul\":540:544   */\n      0x00\n        /* \"#utility.yul\":578:580   */\n      0x40\n        /* \"#utility.yul\":567:576   */\n      dup3\n        /* \"#utility.yul\":563:581   */\n      add\n        /* \"#utility.yul\":555:581   */\n      swap1\n      pop\n        /* \"#utility.yul\":591:656   */\n      tag_34\n        /* \"#utility.yul\":653:654   */\n      0x00\n        /* \"#utility.yul\":642:651   */\n      dup4\n        /* \"#utility.yul\":638:655   */\n      add\n        /* \"#utility.yul\":629:635   */\n      dup6\n        /* \"#utility.yul\":591:656   */\n      tag_17\n      jump\t// in\n    tag_34:\n        /* \"#utility.yul\":666:738   */\n      tag_35\n        /* \"#utility.yul\":734:736   */\n      0x20\n        /* \"#utility.yul\":723:732   */\n      dup4\n        /* \"#utility.yul\":719:737   */\n      add\n        /* \"#utility.yul\":710:716   */\n      dup5\n        /* \"#utility.yul\":666:738   */\n      tag_19\n      jump\t// in\n    tag_35:\n        /* \"#utility.yul\":425:745   */\n      swap4\n      swap3\n      pop\n      pop\n      pop\n      jump\t// out\n        /* \"#utility.yul\":832:949   */\n    tag_21:\n        /* \"#utility.yul\":941:942   */\n      0x00\n        /* \"#utility.yul\":938:939   */\n      0x00\n        /* \"#utility.yul\":931:943   */\n      revert\n        /* \"#utility.yul\":1078:1200   */\n    tag_23:\n        /* \"#utility.yul\":1151:1175   */\n      tag_40\n        /* \"#utility.yul\":1169:1174   */\n      dup2\n        /* \"#utility.yul\":1151:1175   */\n      tag_18\n      jump\t// in\n    tag_40:\n        /* \"#utility.yul\":1144:1149   */\n      dup2\n        /* \"#utility.yul\":1141:1176   */\n      eq\n        /* \"#utility.yul\":1131:1194   */\n      tag_41\n      jumpi\n        /* \"#utility.yul\":1190:1191   */\n      0x00\n        /* \"#utility.yul\":1187:1188   */\n      0x00\n        /* \"#utility.yul\":1180:1192   */\n      revert\n        /* \"#utility.yul\":1131:1194   */\n    tag_41:\n        /* \"#utility.yul\":1078:1200   */\n      pop\n      jump\t// out\n        /* \"#utility.yul\":1206:1349   */\n    tag_24:\n        /* \"#utility.yul\":1263:1268   */\n      0x00\n        /* \"#utility.yul\":1294:1300   */\n      dup2\n        /* \"#utility.yul\":1288:1301   */\n      mload\n        /* \"#utility.yul\":1279:1301   */\n      swap1\n      pop\n        /* \"#utility.yul\":1310:1343   */\n      tag_43\n        /* \"#utility.yul\":1337:1342   */\n      dup2\n        /* \"#utility.yul\":1310:1343   */\n      tag_23\n      jump\t// in\n    tag_43:\n        /* \"#utility.yul\":1206:1349   */\n      swap3\n      swap2\n      pop\n      pop\n      jump\t// out\n        /* \"#utility.yul\":1355:1862   */\n    tag_12:\n        /* \"#utility.yul\":1434:1440   */\n      0x00\n        /* \"#utility.yul\":1442:1448   */\n      0x00\n        /* \"#utility.yul\":1491:1493   */\n      0x40\n        /* \"#utility.yul\":1479:1488   */\n      dup4\n        /* \"#utility.yul\":1470:1477   */\n      dup6\n        /* \"#utility.yul\":1466:1489   */\n      sub\n        /* \"#utility.yul\":1462:1494   */\n      slt\n        /* \"#utility.yul\":1459:1578   */\n      iszero\n      tag_45\n      jumpi\n        /* \"#utility.yul\":1497:1576   */\n      tag_46\n      tag_21\n      jump\t// in\n    tag_46:\n        /* \"#utility.yul\":1459:1578   */\n    tag_45:\n        /* \"#utility.yul\":1617:1618   */\n      0x00\n        /* \"#utility.yul\":1642:1706   */\n      tag_47\n        /* \"#utility.yul\":1698:1705   */\n      dup6\n        /* \"#utility.yul\":1689:1695   */\n      dup3\n        /* \"#utility.yul\":1678:1687   */\n      dup7\n        /* \"#utility.yul\":1674:1696   */\n      add\n        /* \"#utility.yul\":1642:1706   */\n      tag_24\n      jump\t// in\n    tag_47:\n        /* \"#utility.yul\":1632:1706   */\n      swap3\n      pop\n        /* \"#utility.yul\":1588:1716   */\n      pop\n        /* \"#utility.yul\":1755:1757   */\n      0x20\n        /* \"#utility.yul\":1781:1845   */\n      tag_48\n        /* \"#utility.yul\":1837:1844   */\n      dup6\n        /* \"#utility.yul\":1828:1834   */\n      dup3\n        /* \"#utility.yul\":1817:1826   */\n      dup7\n        /* \"#utility.yul\":1813:1835   */\n      add\n        /* \"#utility.yul\":1781:1845   */\n      tag_24\n      jump\t// in\n    tag_48:\n        /* \"#utility.yul\":1771:1845   */\n      swap2\n      pop\n        /* \"#utility.yul\":1726:1855   */\n      pop\n        /* \"#utility.yul\":1355:1862   */\n      swap3\n      pop\n      swap3\n      swap1\n      pop\n      jump\t// out\n        /* \"#utility.yul\":1868:2048   */\n    tag_25:\n        /* \"#utility.yul\":1916:1993   */\n      0x4e487b7100000000000000000000000000000000000000000000000000000000\n        /* \"#utility.yul\":1913:1914   */\n      0x00\n        /* \"#utility.yul\":1906:1994   */\n      mstore\n        /* \"#utility.yul\":2013:2017   */\n      0x11\n        /* \"#utility.yul\":2010:2011   */\n      0x04\n        /* \"#utility.yul\":2003:2018   */\n      mstore\n        /* \"#utility.yul\":2037:2041   */\n      0x24\n        /* \"#utility.yul\":2034:2035   */\n      0x00\n        /* \"#utility.yul\":2027:2042   */\n      revert\n        /* \"#utility.yul\":2054:2248   */\n    tag_15:\n        /* \"#utility.yul\":2094:2098   */\n      0x00\n        /* \"#utility.yul\":2114:2134   */\n      tag_51\n        /* \"#utility.yul\":2132:2133   */\n      dup3\n        /* \"#utility.yul\":2114:2134   */\n      tag_18\n      jump\t// in\n    tag_51:\n        /* \"#utility.yul\":2109:2134   */\n      swap2\n      pop\n        /* \"#utility.yul\":2148:2168   */\n      tag_52\n        /* \"#utility.yul\":2166:2167   */\n      dup4\n        /* \"#utility.yul\":2148:2168   */\n      tag_18\n      jump\t// in\n    tag_52:\n        /* \"#utility.yul\":2143:2168   */\n      swap3\n      pop\n        /* \"#utility.yul\":2192:2193   */\n      dup3\n        /* \"#utility.yul\":2189:2190   */\n      dup3\n        /* \"#utility.yul\":2185:2194   */\n      sub\n        /* \"#utility.yul\":2177:2194   */\n      swap1\n      pop\n        /* \"#utility.yul\":2216:2217   */\n      dup2\n        /* \"#utility.yul\":2210:2214   */\n      dup2\n        /* \"#utility.yul\":2207:2218   */\n      gt\n        /* \"#utility.yul\":2204:2241   */\n      iszero\n      tag_53\n      jumpi\n        /* \"#utility.yul\":2221:2239   */\n      tag_54\n      tag_25\n      jump\t// in\n    tag_54:\n        /* \"#utility.yul\":2204:2241   */\n    tag_53:\n        /* \"#utility.yul\":2054:2248   */\n      swap3\n      swap2\n      pop\n      pop\n      jump\t// out\n\n    auxdata: 0xa2646970667358221220fcc938b4bf328b7849a512bcf096bc2a54118377452ad7f89523561793cef54764736f6c634300081e0033\n}\n",
				"bytecode": {
					"linkReferences": {},
					"object": "608060405234801561000f575f5ffd5b50604051610375380380610375833981810160405281019061003191906100d4565b805f5f6101000a81548173ffffffffffffffffffffffffffffffffffffffff021916908373ffffffffffffffffffffffffffffffffffffffff160217905550506100ff565b5f5ffd5b5f73ffffffffffffffffffffffffffffffffffffffff82169050919050565b5f6100a38261007a565b9050919050565b6100b381610099565b81146100bd575f5ffd5b50565b5f815190506100ce816100aa565b92915050565b5f602082840312156100e9576100e8610076565b5b5f6100f6848285016100c0565b91505092915050565b6102698061010c5f395ff3fe608060405234801561000f575f5ffd5b5060043610610029575f3560e01c8063141ad6681461002d575b5f5ffd5b61003561004c565b604051610043929190610140565b60405180910390f35b5f5f5f5f5f5f9054906101000a900473ffffffffffffffffffffffffffffffffffffffff1673ffffffffffffffffffffffffffffffffffffffff166311054e286040518163ffffffff1660e01b81526004016040805180830381865afa1580156100b8573d5f5f3e3d5ffd5b505050506040513d601f19601f820116820180604052508101906100dc9190610195565b915091508082111561010157600181836100f69190610200565b93509350505061010a565b5f5f9350935050505b9091565b5f8115159050919050565b6101228161010e565b82525050565b5f819050919050565b61013a81610128565b82525050565b5f6040820190506101535f830185610119565b6101606020830184610131565b9392505050565b5f5ffd5b61017481610128565b811461017e575f5ffd5b50565b5f8151905061018f8161016b565b92915050565b5f5f604083850312156101ab576101aa610167565b5b5f6101b885828601610181565b92505060206101c985828601610181565b9150509250929050565b7f4e487b71000000000000000000000000000000000000000000000000000000005f52601160045260245ffd5b5f61020a82610128565b915061021583610128565b925082820390508181111561022d5761022c6101d3565b5b9291505056fea2646970667358221220fcc938b4bf328b7849a512bcf096bc2a54118377452ad7f89523561793cef54764736f6c634300081e0033",
					"opcodes": "PUSH1 0x80 PUSH1 0x40 MSTORE CALLVALUE DUP1 ISZERO PUSH2 0xF JUMPI PUSH0 PUSH0 REVERT JUMPDEST POP PUSH1 0x40 MLOAD PUSH2 0x375 CODESIZE SUB DUP1 PUSH2 0x375 DUP4 CODECOPY DUP2 DUP2 ADD PUSH1 0x40 MSTORE DUP2 ADD SWAP1 PUSH2 0x31 SWAP2 SWAP1 PUSH2 0xD4 JUMP JUMPDEST DUP1 PUSH0 PUSH0 PUSH2 0x100 EXP DUP2 SLOAD DUP2 PUSH20 0xFFFFFFFFFFFFFFFFFFFFFFFFFFFFFFFFFFFFFFFF MUL NOT AND SWAP1 DUP4 PUSH20 0xFFFFFFFFFFFFFFFFFFFFFFFFFFFFFFFFFFFFFFFF AND MUL OR SWAP1 SSTORE POP POP PUSH2 0xFF JUMP JUMPDEST PUSH0 PUSH0 REVERT JUMPDEST PUSH0 PUSH20 0xFFFFFFFFFFFFFFFFFFFFFFFFFFFFFFFFFFFFFFFF DUP3 AND SWAP1 POP SWAP2 SWAP1 POP JUMP JUMPDEST PUSH0 PUSH2 0xA3 DUP3 PUSH2 0x7A JUMP JUMPDEST SWAP1 POP SWAP2 SWAP1 POP JUMP JUMPDEST PUSH2 0xB3 DUP2 PUSH2 0x99 JUMP JUMPDEST DUP2 EQ PUSH2 0xBD JUMPI PUSH0 PUSH0 REVERT JUMPDEST POP JUMP JUMPDEST PUSH0 DUP2 MLOAD SWAP1 POP PUSH2 0xCE DUP2 PUSH2 0xAA JUMP JUMPDEST SWAP3 SWAP2 POP POP JUMP JUMPDEST PUSH0 PUSH1 0x20 DUP3 DUP5 SUB SLT ISZERO PUSH2 0xE9 JUMPI PUSH2 0xE8 PUSH2 0x76 JUMP JUMPDEST JUMPDEST PUSH0 PUSH2 0xF6 DUP5 DUP3 DUP6 ADD PUSH2 0xC0 JUMP JUMPDEST SWAP2 POP POP SWAP3 SWAP2 POP POP JUMP JUMPDEST PUSH2 0x269 DUP1 PUSH2 0x10C PUSH0 CODECOPY PUSH0 RETURN INVALID PUSH1 0x80 PUSH1 0x40 MSTORE CALLVALUE DUP1 ISZERO PUSH2 0xF JUMPI PUSH0 PUSH0 REVERT JUMPDEST POP PUSH1 0x4 CALLDATASIZE LT PUSH2 0x29 JUMPI PUSH0 CALLDATALOAD PUSH1 0xE0 SHR DUP1 PUSH4 0x141AD668 EQ PUSH2 0x2D JUMPI JUMPDEST PUSH0 PUSH0 REVERT JUMPDEST PUSH2 0x35 PUSH2 0x4C JUMP JUMPDEST PUSH1 0x40 MLOAD PUSH2 0x43 SWAP3 SWAP2 SWAP1 PUSH2 0x140 JUMP JUMPDEST PUSH1 0x40 MLOAD DUP1 SWAP2 SUB SWAP1 RETURN JUMPDEST PUSH0 PUSH0 PUSH0 PUSH0 PUSH0 PUSH0 SWAP1 SLOAD SWAP1 PUSH2 0x100 EXP SWAP1 DIV PUSH20 0xFFFFFFFFFFFFFFFFFFFFFFFFFFFFFFFFFFFFFFFF AND PUSH20 0xFFFFFFFFFFFFFFFFFFFFFFFFFFFFFFFFFFFFFFFF AND PUSH4 0x11054E28 PUSH1 0x40 MLOAD DUP2 PUSH4 0xFFFFFFFF AND PUSH1 0xE0 SHL DUP2 MSTORE PUSH1 0x4 ADD PUSH1 0x40 DUP1 MLOAD DUP1 DUP4 SUB DUP2 DUP7 GAS STATICCALL ISZERO DUP1 ISZERO PUSH2 0xB8 JUMPI RETURNDATASIZE PUSH0 PUSH0 RETURNDATACOPY RETURNDATASIZE PUSH0 REVERT JUMPDEST POP POP POP POP PUSH1 0x40 MLOAD RETURNDATASIZE PUSH1 0x1F NOT PUSH1 0x1F DUP3 ADD AND DUP3 ADD DUP1 PUSH1 0x40 MSTORE POP DUP2 ADD SWAP1 PUSH2 0xDC SWAP2 SWAP1 PUSH2 0x195 JUMP JUMPDEST SWAP2 POP SWAP2 POP DUP1 DUP3 GT ISZERO PUSH2 0x101 JUMPI PUSH1 0x1 DUP2 DUP4 PUSH2 0xF6 SWAP2 SWAP1 PUSH2 0x200 JUMP JUMPDEST SWAP4 POP SWAP4 POP POP POP PUSH2 0x10A JUMP JUMPDEST PUSH0 PUSH0 SWAP4 POP SWAP4 POP POP POP JUMPDEST SWAP1 SWAP2 JUMP JUMPDEST PUSH0 DUP2 ISZERO ISZERO SWAP1 POP SWAP2 SWAP1 POP JUMP JUMPDEST PUSH2 0x122 DUP2 PUSH2 0x10E JUMP JUMPDEST DUP3 MSTORE POP POP JUMP JUMPDEST PUSH0 DUP2 SWAP1 POP SWAP2 SWAP1 POP JUMP JUMPDEST PUSH2 0x13A DUP2 PUSH2 0x128 JUMP JUMPDEST DUP3 MSTORE POP POP JUMP JUMPDEST PUSH0 PUSH1 0x40 DUP3 ADD SWAP1 POP PUSH2 0x153 PUSH0 DUP4 ADD DUP6 PUSH2 0x119 JUMP JUMPDEST PUSH2 0x160 PUSH1 0x20 DUP4 ADD DUP5 PUSH2 0x131 JUMP JUMPDEST SWAP4 SWAP3 POP POP POP JUMP JUMPDEST PUSH0 PUSH0 REVERT JUMPDEST PUSH2 0x174 DUP2 PUSH2 0x128 JUMP JUMPDEST DUP2 EQ PUSH2 0x17E JUMPI PUSH0 PUSH0 REVERT JUMPDEST POP JUMP JUMPDEST PUSH0 DUP2 MLOAD SWAP1 POP PUSH2 0x18F DUP2 PUSH2 0x16B JUMP JUMPDEST SWAP3 SWAP2 POP POP JUMP JUMPDEST PUSH0 PUSH0 PUSH1 0x40 DUP4 DUP6 SUB SLT ISZERO PUSH2 0x1AB JUMPI PUSH2 0x1AA PUSH2 0x167 JUMP JUMPDEST JUMPDEST PUSH0 PUSH2 0x1B8 DUP6 DUP3 DUP7 ADD PUSH2 0x181 JUMP JUMPDEST SWAP3 POP POP PUSH1 0x20 PUSH2 0x1C9 DUP6 DUP3 DUP7 ADD PUSH2 0x181 JUMP JUMPDEST SWAP2 POP POP SWAP3 POP SWAP3 SWAP1 POP JUMP JUMPDEST PUSH32 0x4E487B7100000000000000000000000000000000000000000000000000000000 PUSH0 MSTORE PUSH1 0x11 PUSH1 0x4 MSTORE PUSH1 0x24 PUSH0 REVERT JUMPDEST PUSH0 PUSH2 0x20A DUP3 PUSH2 0x128 JUMP JUMPDEST SWAP2 POP PUSH2 0x215 DUP4 PUSH2 0x128 JUMP JUMPDEST SWAP3 POP DUP3 DUP3 SUB SWAP1 POP DUP2 DUP2 GT ISZERO PUSH2 0x22D JUMPI PUSH2 0x22C PUSH2 0x1D3 JUMP JUMPDEST JUMPDEST SWAP3 SWAP2 POP POP JUMP INVALID LOG2 PUSH5 0x6970667358 0x22 SLT KECCAK256 0xFC 0xC9 CODESIZE 0xB4 0xBF ORIGIN DUP12 PUSH25 0x49A512BCF096BC2A54118377452AD7F89523561793CEF54764 PUSH20 0x6F6C634300081E00330000000000000000000000 "
				},
				"gasEstimates": {
					"creation": {
						"codeDepositCost": "123400",
						"executionCost": "infinite",
						"totalCost": "infinite"
					},
					"external": {
						"checkExcessEnergy()": "infinite"
					}
				},
				"methodIdentifiers": {
					"checkExcessEnergy()": "141ad668"
				}
			},
			"storageLayout": {
				"storage": [
					{
						"astId": 12,
						"contract": "contracts/1_Energy_Monitor.sol:EnergyMonitor",
						"label": "oracle",
						"offset": 0,
						"slot": "0",
						"type": "t_contract(IOracle)9"
					}
				],
				"types": {
					"t_contract(IOracle)9": {
						"encoding": "inplace",
						"label": "contract IOracle",
						"numberOfBytes": "20"
					}
				}
			},
			"userdoc": {
				"kind": "user",
				"methods": {},
				"version": 1
			}
		}
	}
}