{
	"data": {
		"bytecode": {
			"linkReferences": {},
			"object": "6080604052348015600e575f5ffd5b506101748061001c5f395ff3fe608060405234801561000f575f5ffd5b5060043610610034575f3560e01c806311054e2814610038578063e5f5a1fe14610057575b5f5ffd5b610040610073565b60405161004e9291906100ab565b60405180910390f35b610071600480360381019061006c9190610100565b610082565b005b5f5f5f54600154915091509091565b815f81905550806001819055505050565b5f819050919050565b6100a581610093565b82525050565b5f6040820190506100be5f83018561009c565b6100cb602083018461009c565b9392505050565b5f5ffd5b6100df81610093565b81146100e9575f5ffd5b50565b5f813590506100fa816100d6565b92915050565b5f5f60408385031215610116576101156100d2565b5b5f610123858286016100ec565b9250506020610134858286016100ec565b915050925092905056fea2646970667358221220c288fb3ece66686652f617c13da5e964f5f7b156f4b9560870fc168e51af68d864736f6c634300081e0033",
			"opcodes": "PUSH1 0x80 PUSH1 0x40 MSTORE CALLVALUE DUP1 ISZERO PUSH1 0xE JUMPI PUSH0 PUSH0 REVERT JUMPDEST POP PUSH2 0x174 DUP1 PUSH2 0x1C PUSH0 CODECOPY PUSH0 RETURN INVALID PUSH1 0x80 PUSH1 0x40 MSTORE CALLVALUE DUP1 ISZERO PUSH2 0xF JUMPI PUSH0 PUSH0 REVERT JUMPDEST POP PUSH1 0x4 CALLDATASIZE LT PUSH2 0x34 JUMPI PUSH0 CALLDATALOAD PUSH1 0xE0 SHR DUP1 PUSH4 0x11054E28 EQ PUSH2 0x38 JUMPI DUP1 PUSH4 0xE5F5A1FE EQ PUSH2 0x57 JUMPI JUMPDEST PUSH0 PUSH0 REVERT JUMPDEST PUSH2 0x40 PUSH2 0x73 JUMP JUMPDEST PUSH1 0x40 MLOAD PUSH2 0x4E SWAP3 SWAP2 SWAP1 PUSH2 0xAB JUMP JUMPDEST PUSH1 0x40 MLOAD DUP1 SWAP2 SUB SWAP1 RETURN JUMPDEST PUSH2 0x71 PUSH1 0x4 DUP1 CALLDATASIZE SUB DUP2 ADD SWAP1 PUSH2 0x6C SWAP2 SWAP1 PUSH2 0x100 JUMP JUMPDEST PUSH2 0x82 JUMP JUMPDEST STOP JUMPDEST PUSH0 PUSH0 PUSH0 SLOAD PUSH1 0x1 SLOAD SWAP2 POP SWAP2 POP SWAP1 SWAP2 JUMP JUMPDEST DUP2 PUSH0 DUP2 SWAP1 SSTORE POP DUP1 PUSH1 0x1 DUP2 SWAP1 SSTORE POP POP POP JUMP JUMPDEST PUSH0 DUP2 SWAP1 POP SWAP2 SWAP1 POP JUMP JUMPDEST PUSH2 0xA5 DUP2 PUSH2 0x93 JUMP JUMPDEST DUP3 MSTORE POP POP JUMP JUMPDEST PUSH0 PUSH1 0x40 DUP3 ADD SWAP1 POP PUSH2 0xBE PUSH0 DUP4 ADD DUP6 PUSH2 0x9C JUMP JUMPDEST PUSH2 0xCB PUSH1 0x20 DUP4 ADD DUP5 PUSH2 0x9C JUMP JUMPDEST SWAP4 SWAP3 POP POP POP JUMP JUMPDEST PUSH0 PUSH0 REVERT JUMPDEST PUSH2 0xDF DUP2 PUSH2 0x93 JUMP JUMPDEST DUP2 EQ PUSH2 0xE9 JUMPI PUSH0 PUSH0 REVERT JUMPDEST POP JUMP JUMPDEST PUSH0 DUP2 CALLDATALOAD SWAP1 POP PUSH2 0xFA DUP2 PUSH2 0xD6 JUMP JUMPDEST SWAP3 SWAP2 POP POP JUMP JUMPDEST PUSH0 PUSH0 PUSH1 0x40 DUP4 DUP6 SUB SLT ISZERO PUSH2 0x116 JUMPI PUSH2 0x115 PUSH2 0xD2 JUMP JUMPDEST JUMPDEST PUSH0 PUSH2 0x123 DUP6 DUP3 DUP7 ADD PUSH2 0xEC JUMP JUMPDEST SWAP3 POP POP PUSH1 0x20 PUSH2 0x134 DUP6 DUP3 DUP7 ADD PUSH2 0xEC JUMP JUMPDEST SWAP2 POP POP SWAP3 POP SWAP3 SWAP1 POP JUMP INVALID LOG2 PUSH5 0x6970667358 0x22 SLT KECCAK256 0xC2 DUP9 EXTSTATICCALL RETURNDATACOPY 0xCE PUSH7 0x686652F617C13D 0xA5 0xE9 PUSH5 0xF5F7B156F4 0xB9 JUMP ADDMOD PUSH17 0xFC168E51AF68D864736F6C634300081E00 CALLER "
		},
		"gasEstimates": {
			"creation": {
				"codeDepositCost": "74400",
				"executionCost": "121",
				"totalCost": "74521"
			},
			"external": {
				"getEnergyData()": "infinite",
				"setEnergyData(uint256,uint256)": "infinite"
			}
		},
		"methodIdentifiers": {
			"getEnergyData()": "11054e28",
			"setEnergyData(uint256,uint256)": "e5f5a1fe"
		}
	},
	"abi": [
		{
			"inputs": [],
			"name": "getEnergyData",
			"outputs": [
				{
					"internalType": "uint256",
					"name": "production",
					"type": "uint256"
				},
				{
					"internalType": "uint256",
					"name": "consumption",
					"type": "uint256"
				}
			],
			"stateMutability": "view",
			"type": "function"
		},
		{
			"inputs": [
				{
					"internalType": "uint256",
					"name": "_production",
					"type": "uint256"
				},
				{
					"internalType": "uint256",
					"name": "_consumption",
					"type": "uint256"
				}
			],
			"name": "setEnergyData",
			"outputs": [],
			"stateMutability": "nonpayable",
			"type": "function"
		}
	]
}